:020000040000FA
:0600000000F04AEF33F0AE
:02000800FFFFF8
:10000B000001010101FFFF000E0001DC6FCCC01DE0
:10001B00F0CDC01EF0CEC01FF0CFC020F0000E21DF
:10002B006E000E226E000E236E000E246E3AEC351F
:10003B00F0D8A023EF00F026EF00F0FFFF53EF0006
:10004B00F0FFFF000E016E000E026E000E036E003D
:10005B000E046ED0C005F0D1C006F0D2C007F0D3AD
:10006B00C008F079EC37F0D8A03EEF00F041EF007C
:10007B00F0FFFF47EF00F0FFFF000E0001B16F2113
:10008B000EB06FFFFF000E0001CC6F000ECD6F00A6
:10009B000ECE6F000ECF6F4AEF01F0FFFFD0C01DE9
:1000AB00F0D1C01EF0D2C01FF0D3C020F0000E2143
:1000BB006E000E226E000E236E000E246E3AEC358F
:1000CB00F0D8A06BEF00F06EEF00F0FFFF7AEF00BF
:1000DB00F0FFFF000E0001CC6F000ECD6F800ECE37
:1000EB006F3F0ECF6F4AEF01F0FFFF0001CFBF84D0
:1000FB00EF00F081EF00F0FFFFE3EF00F0FFFFD028
:10010B00C053F0D1C054F0D2C055F0D3C056F00D4F
:10011B00EC38F053C0DDF054C0DEF055C0DFF056C4
:10012B00C0E0F0DDC00FF0DEC010F0DFC011F0E07A
:10013B00C012F0000E60EC3CF00FC01DF010C01EA2
:10014B00F011C01FF012C020F0D0C021F0D1C0229E
:10015B00F0D2C023F0D3C024F03AEC35F0D8B0B9CC
:10016B00EF00F0BCEF00F0FFFFCCEF00F0FFFF0063
:10017B000E0001B16F210EB06F000ECC6F000ECDD3
:10018B006F000ECE6F000ECF6F4AEF01F0FFFF0036
:10019B0001DD51010BDC6FCCC001F0CDC002F0CE04
:1001AB00C003F0CFC004F029EC33F001C0CCF00257
:1001BB00C0CDF003C0CEF004C0CFF0FFFFCCC077B2
:1001CB00F0CDC078F0CEC079F0CFC07AF089EC3B9F
:1001DB00F077C0D4F078C0D5F079C0D6F07AC0D71C
:1001EB00F0D4C031F0D5C032F0D6C033F0D7C03424
:1001FB00F0D0C035F0D1C036F0D2C037F0D3C03814
:10020B00F066EC09F031C0D8F032C0D9F033C0DA67
:10021B00F034C0DBF0D8C0C1F0D9C0C2F0DAC0C333
:10022B00F0DBC0C4F04DEC01F0C1C0CCF0C2C0CDCE
:10023B00F0C3C0CEF0C4C0CFF00001DC51D8B4295C
:10024B00EF01F02CEF01F0FFFF41EF01F0FFFFCCCE
:10025B00C001F0CDC002F0CEC003F0CFC004F02936
:10026B00EC33F001C0CCF002C0CDF003C0CEF004F3
:10027B00C0CFF04AEF01F0FFFFCCC0CCF0CDC0CD2A
:10028B00F0CEC0CEF0CFC0CFF0FFFF1200FFFFFFCC
:10029B00FFC1C01DF0C2C01EF0C3C01FF0C4C02000
:1002AB00F0000E216E000E226E000E236E000E2447
:1002BB006E3AEC35F0D8A065EF01F068EF01F0FF76
:1002CB00FF74EF01F0FFFF000E0001C16F000EC2C3
:1002DB006F800EC36F3F0EC46FD5EF02F0FFFF1898
:1002EB000E016E720E026E310E036E440E046EC161
:1002FB00C005F0C2C006F0C3C007F0C4C008F07957
:10030B00EC37F0D8B08CEF01F08FEF01F0FFFF9FCF
:10031B00EF01F0FFFF000E0001B16F220EB06FFF77
:10032B000EC16FFF0EC26F7F0EC36F7F0EC46FD5F2
:10033B00EF02F0FFFFC1C001F0C2C002F0C3C00367
:10034B00F0C4C004F0870E056E480E066E3A0E0719
:10035B006EC40E086E79EC37F0D8B0B7EF01F0BA77
:10036B00EF01F0FFFFCAEF01F0FFFF000E0001B13C
:10037B006F220EB06F000EC16F000EC26F000EC366
:10038B006F000EC46FD5EF02F0FFFF0001C4BFD1A9
:10039B00EF01F0D5EF01F0FFFF010ED7EF01F0FFFA
:1003AB00FF000EFFFFCB6FCB51D8B4DFEF01F0E2B4
:1003BB00EF01F0FFFFF5EF01F0FFFFC1C001F0C24D
:1003CB00C002F0C3C003F0C4C004F029EC33F00149
:1003DB00C0C1F002C0C2F003C0C3F004C0C4F0FF40
:1003EB00FFC1C031F0C2C032F0C3C033F0C4C0345F
:1003FB00F03B0E356EAA0E366EB80E376E3F0E38CA
:10040B006E66EC09F031C0C1F032C0C2F033C0C32C
:10041B00F034C0C4F0C1C067F0C2C068F0C3C0699B
:10042B00F0C4C06AF055EC39F067C0C5F068C0C6BF
:10043B00F069C0C7F06AC0C8F0C5C053F0C6C0545D
:10044B00F0C7C055F0C8C056F00DEC38F053C0C91A
:10045B00F054C0CAF0C1C067F0C2C068F0C3C06935
:10046B00F0C4C06AF0C9C00FF0CAC010F0000E1083
:10047B00BEFF0E116E126E010E60EC3CF00FC06BE6
:10048B00F010C06CF011C06DF012C06EF06BEC335D
:10049B00F067C0C1F068C0C2F069C0C3F06AC0C4E5
:1004AB00F0C1C067F0C2C068F0C3C069F0C4C06AD5
:1004BB00F0050E6B6E7E0E6C6E000E6E6E090E6D81
:1004CB006EECEC36F067C077F068C078F069C079F5
:1004DB00F06AC07AF0C9C07BF0CAC07CF0A8EC38D7
:1004EB00F077C0C1F078C0C2F079C0C3F07AC0C455
:1004FB00F00001CB51D8B485EF02F088EF02F0FF8A
:10050B00FFCCEF02F0FFFFC1C01DF0C2C01EF0C355
:10051B00C01FF0C4C020F0FF0E216EFF0E226E7FB5
:10052B000E236E7F0E246E3AEC35F0D8A0A0EF02AE
:10053B00F0A3EF02F0FFFFAFEF02F0FFFF000E00A2
:10054B0001C16F000EC26F000EC36F000EC46FD5DA
:10055B00EF02F0FFFF000E016E000E026E800E0325
:10056B006E3F0E046EC1C005F0C2C006F0C3C007DB
:10057B00F0C4C008F0D8EC02F001C0C1F002C0C258
:10058B00F003C0C3F004C0C4F0D5EF02F0FFFFC10D
:10059B00C0C1F0C2C0C2F0C3C0C3F0C4C0C4F0FF3E
:1005AB00FF1200FFFFFFFF0450800B116E0450047D
:1005BB0024186E03AEE4EF02F0E7EF02F0FFFFE961
:1005CB00EF02F0FFFF1880FFFF1850D8B4F0EF02D6
:1005DB00F0F3EF02F0FFFF0CEF03F0FFFF1828D84A
:1005EB00A4FAEF02F0FDEF02F0FFFF06EF03F0FFBE
:1005FB00FF000E016E000E026E000E036E000E0465
:10060B006EFFFF038E000E046E15EF03F0FFFF006D
:10061B000E016E000E026E000E036E000E046EFFD6
:10062B00FF0850800B111A08500824196E07AE21D1
:10063B00EF03F024EF03F0FFFF26EF03F0FFFF19AA
:10064B0080FFFF1950D8B42DEF03F030EF03F0FF0C
:10065B00FF49EF03F0FFFF1928D8A437EF03F03A57
:10066B00EF03F0FFFF43EF03F0FFFF000E056E00FB
:10067B000E066E000E076E000E086EFFFF078E0053
:10068B000E086E52EF03F0FFFF000E056E000E0614
:10069B006E000E076E000E086EFFFF05500610076A
:1006AB00100810D8A45CEF03F05FEF03F0FFFF79A5
:1006BB00EF03F0FFFF000E016E000E026E000E0343
:1006CB006E000E046E800E03127F0E0412FFFF11DC
:1006DB0050041201C001F002C002F003C003F00489
:1006EB00C004F0EEEF04F0FFFF1850D8A480EF0326
:1006FB00F083EF03F0FFFF8EEF03F0FFFF000E011F
:10070B006E000E026E000E036E000E046EEEEF0412
:10071B00F0FFFF195018C009F00A6A095E000E0AB3
:10072B005A7F0E0924126E000E0A20136E01C00DA3
:10073B00F002C00EF003C00FF004C010F0000E0169
:10074B006E000E026E000E036E000E046E000E1491
:10075B006E000E156E000E166E000E176E000E1943
:10076B006EFAEF03F0FFFF1950D8B4BFEF03F0C2DE
:10077B00EF03F0FFFFDDEF03F0FFFFD8900D360E18
:10078B00360F361036D8900136023603360436173C
:10079B00AED2EF03F0D5EF03F0FFFFD7EF03F0FF7F
:1007AB00FF0180FFFFD8901436153616361736FF2B
:1007BB00FF05500D5C06500E5807500F580850108F
:1007CB0058D8A0EBEF03F0EEEF03F0FFFFF8EF03C9
:1007DB00F0FFFF178C05500D5E06500E5A07500F99
:1007EB005A0850105AFFFF192AFFFF190E196401FE
:1007FB00EF04F004EF04F0FFFFB8EF03F0FFFF0D81
:10080B00500E100F101010D8B40EEF04F011EF04AF
:10081B00F0FFFF2EEF04F0FFFF14802EEF04F0FF2C
:10082B00FFD890013602360336043617AE20EF049C
:10083B00F023EF04F0FFFF25EF04F0FFFF0180FF33
:10084B00FFD89014361536163617361206D8A01365
:10085B0006FFFF03AE34EF04F037EF04F0FFFF1594
:10086B00EF04F0FFFF000E196E17AE3FEF04F042DE
:10087B00EF04F0FFFF6DEF04F0FFFFFF0E14140900
:10088B006EFF0E15140A6EFF0E16140B6E7F0E17ED
:10089B00140C6E09500A100B100C10D8B458EF043E
:1008AB00F05BEF04F0FFFF61EF04F0FFFFFFFF01D0
:1008BB000E196E6DEF04F0FFFF01A067EF04F06AF5
:1008CB00EF04F0FFFF6DEF04F0FFFF5CEF04F0FFB0
:1008DB00FF1950D8B474EF04F077EF04F0FFFF9ECC
:1008EB00EF04F0FFFF010E0126000E02220322048B
:1008FB002204A083EF04F086EF04F0FFFF9EEF04C9
:10090B00F0FFFF01C009F002C00AF003C00BF004B6
:10091B00C00CF00C340C320B320A32093209C00114
:10092B00F00AC002F00BC003F00CC004F0124A1323
:10093B002AFFFF13BEAAEF04F0135009E11228D8C7
:10094B00A0AAEF04F0ADEF04F0FFFFB9EF04F0FF46
:10095B00FF000E136E1268000E016E000E026E0089
:10096B000E036E000E046EFFFF13BEC8EF04F013F0
:10097B005006E11204D8B0C5EF04F0C8EF04F0FF45
:10098B00FFD7EF04F0FFFF000E136E000E126E0088
:10099B000E016E000E026E000E036E000E046E0052
:1009AB000E116EFFFF12C018F018A0DFEF04F0E27B
:1009BB00EF04F0FFFFE6EF04F0FFFF038EE8EF0418
:1009CB00F0FFFF039EFFFFD8901830046E6CEF030F
:1009DB00F0FFFF1200FFFFFFFF840E94EC32F004D8
:1009EB000E0001C16F010EC26FE40EC36F7F0EC408
:1009FB006F8CEC0EF00001C151EAEC32F0C50E9495
:100A0B00EC32F0040E0001C16F010EC26FE40EC395
:100A1B006F7F0EC46F8CEC0EF00001C151EAEC320B
:100A2B00F0800E94EC32F0040E0001C16F010EC287
:100A3B006FF00EC36F7F0EC46F8CEC0EF00001C114
:100A4B0051EAEC32F0CC0E94EC32F0040E0001C102
:100A5B006F010EC26FE20EC36F7F0EC46F8CEC0E74
:100A6B00F00001C151EAEC32F0C70E94EC32F00405
:100A7B000E0001C16F010EC26FE60EC36F7F0EC475
:100A8B006F8CEC0EF00001C151EAEC32F0020E74E7
:100A9B006E250E736E630EFFFFE82EFDD7732EFBD4
:100AAB00D7742EF9D700D0820E94EC32F0040E00DE
:100ABB0001C16F010EC26FE60EC36F7F0EC46F8C48
:100ACB00EC0EF00001C151EAEC32F0CA0E94EC329C
:100ADB00F0040E0001C16F010EC26FE60EC36F7FF3
:100AEB000EC46F8CEC0EF00001C151EAEC32F0C673
:100AFB000E94EC32F0040E0001C16F010EC26FF8C0
:100B0B000EC36F7F0EC46F8CEC0EF00001C151EA67
:100B1B00EC32F0020E746E250E736E630EFFFFE85F
:100B2B002EFDD7732EFBD7742EF9D700D0810E94E0
:100B3B00EC32F0040E0001C16F010EC26FFA0EC34E
:100B4B006F7F0EC46F8CEC0EF00001C151EAEC32DA
:100B5B00F0CB0E94EC32F0040E0001C16F010EC20B
:100B6B006FE80EC36F7F0EC46F8CEC0EF00001C1EB
:100B7B0051EAEC32F0C80E94EC32F0040E0001C1D5
:100B8B006F010EC26FF40EC36F7F0EC46F8CEC0E31
:100B9B00F00001C151EAEC32F0020E746E250E73B7
:100BAB006E630EFFFFE82EFDD7732EFBD7742EF965
:100BBB00D700D0830E94EC32F0040E0001C16F010C
:100BCB000EC26FF60EC36F7F0EC46F8CEC0EF0006F
:100BDB0001C151EAEC32F0C90E94EC32F0040E0074
:100BEB0001C16F010EC26FEC0EC36F7F0EC46F8C11
:100BFB00EC0EF00001C151EAEC32F0020E746E25DE
:100C0B000E736E630EFFFFE82EFDD7732EFBD774AA
:100C1B002EF9D700D0850E94EC32F0040E0001C1F2
:100C2B006F010EC26FF80EC36F7F0EC46F8CEC0E8C
:100C3B00F00001C151EAEC32F08C0E94EC32F0046E
:100C4B000E0001C16F010EC26FF40EC36F7F0EC495
:100C5B006F8CEC0EF00001C151EAEC32F0C20E9435
:100C6B00EC32F0040E0001C16F010EC26FFC0EC31B
:100C7B006F7F0EC46F8CEC0EF00001C151EAEC32A9
:100C8B00F0020E746E250E736E630EFFFFE82EFDE1
:100C9B00D7732EFBD7742EF9D700D0860E94EC3277
:100CAB00F0040E0001C16F010EC26FE60EC36F7F21
:100CBB000EC46F8CEC0EF00001C151EAEC32F08BDC
:100CCB000E94EC32F0040E0001C16F010EC26FE600
:100CDB000EC36F7F0EC46F8CEC0EF00001C151EA96
:100CEB00EC32F0C10E94EC32F0040E0001C16F0136
:100CFB000EC26FEA0EC36F7F0EC46F8CEC0EF0004A
:100D0B0001C151EAEC32F0020E746E250E736E6364
:100D1B000EFFFFE82EFDD7732EFBD7742EF9D700ED
:100D2B00D0870E94EC32F0040E0001C16F010EC29D
:100D3B006FF60EC36F7F0EC46F8CEC0EF00001C10B
:100D4B0051EAEC32F08A0E94EC32F0040E0001C141
:100D5B006F010EC26FFC0EC36F7F0EC46F8CEC0E57
:100D6B00F00001C151EAEC32F0C30E94EC32F00406
:100D7B000E0001C16F010EC26FEE0EC36F7F0EC46A
:100D8B006F8CEC0EF00001C151EAEC32F0020E74E4
:100D9B006E250E736E630EFFFFE82EFDD7732EFBD1
:100DAB00D7742EF9D700D0880E94EC32F0040E00D5
:100DBB0001C16F010EC26FE10EC36F7F0EC46F8C4A
:100DCB00EC0EF00001C151EAEC32F0C00E94EC32A3
:100DDB00F0040E0001C16F010EC26FF20EC36F7FE4
:100DEB000EC46F8CEC0EF00001C151EAEC32F0C472
:100DFB000E94EC32F0040E0001C16F010EC26FF6BF
:100E0B000EC36F7F0EC46F8CEC0EF00001C151EA64
:100E1B00EC32F0020E746E250E736E630EFFFFE85C
:100E2B002EFDD7732EFBD7742EF9D700D01200FFEF
:100E3B00FFFFFF526E52BE28EF07F025EF07F0FFC2
:100E4B00FF47EF08F0FFFF526C5250800A120FD889
:100E5B00A032EF07F035EF07F0FFFFCBEF07F0FF06
:100E6B00FF000E0A6E0A0E096E000E046E640E036E
:100E7B006E5250016E026A01BE020606EC36F0019C
:100E8B00C007F002C008F074EC36F0090E07260715
:100E9B0050040DD10EF324F66E7D0EF420F76E097F
:100EAB0000FFFFF5CF35F00900FFFFF5CF36F00956
:100EBB0000FFFFF5CF37F00A00FFFFF5CF38F0004A
:100ECB000E0A6E640E096E5250076E086A07BE0852
:100EDB000674EC36F0120E07260750040DD10EF3F4
:100EEB0024F66E7D0EF420F76E0900FFFFF5CF316F
:100EFB00F00900FFFFF5CF32F00900FFFFF5CF330C
:100F0B00F00A00FFFFF5CF34F066EC09F031C04E6C
:100F1B00F032C04FF033C050F034C051F04EC031FE
:100F2B00F04FC032F050C033F051C034F0000E041B
:100F3B006E0A0E036E5250016E026A01BE02060665
:100F4B00EC36F00150040DD10EF324F66E7D0EF449
:100F5B0020F76E0900FFFFF5CF35F00900FFFFF515
:100F6B00CF36F00900FFFFF5CF37F00A00FFFFF592
:100F7B00CF38F066EC09F031C04AF032C04BF03399
:100F8B00C04CF034C04DF063EF09F0FFFF525080BE
:100F9B000A750FD8A0D4EF07F0D7EF07F0FFFF2C9F
:100FAB00EF08F0FFFF000E0A6E0A0E096E52500793
:100FBB006E086A07BE080674EC36F0090E072607A2
:100FCB0050040DD10EF324F66E7D0EF420F76E094E
:100FDB0000FFFFF5CF31F00900FFFFF5CF32F0092D
:100FEB0000FFFFF5CF33F00A00FFFFF5CF34F00021
:100FFB000E046E0A0E036E5250016E026A01BE029F
:10100B000606EC36F00150040DD10EF324F66E7D7E
:10101B000EF420F76E0900FFFFF5CF35F00900FF46
:10102B00FFF5CF36F00900FFFFF5CF37F00A00FFD1
:10103B00FFF5CF38F066EC09F031C04AF032C04B07
:10104B00F033C04CF034C04DF063EF09F0FFFF52AA
:10105B0050040DD10EF324F66E7D0EF420F76E09BD
:10106B0000FFFFF5CF4AF00900FFFFF5CF4BF0096A
:10107B0000FFFFF5CF4CF00A00FFFFF5CF4DF063FB
:10108B00EF09F0FFFF5250800A120FD8A050EF0863
:10109B00F053EF08F0FFFFE9EF08F0FFFF000E0A37
:1010AB006E0A0E096E000E046E640E036E52500132
:1010BB006E026A01BE020606EC36F001C007F002B2
:1010CB00C008F074EC36F0090E07260750040D9D8E
:1010DB000EF324F66E7D0EF420F76E0900FFFFF57C
:1010EB00CF35F00900FFFFF5CF36F00900FFFFF514
:1010FB00CF37F00A00FFFFF5CF38F0000E0A6E6411
:10110B000E096E5250076E086A07BE080674EC365D
:10111B00F0120E07260750040D9D0EF324F66E7D7C
:10112B000EF420F76E0900FFFFF5CF31F00900FF39
:10113B00FFF5CF32F00900FFFFF5CF33F00A00FFC8
:10114B00FFF5CF34F066EC09F031C04EF032C04FF2
:10115B00F033C050F034C051F04EC031F04FC032BC
:10116B00F050C033F051C034F0000E046E0A0E0381
:10117B006E5250016E026A01BE020606EC36F00199
:10118B0050040D9D0EF324F66E7D0EF420F76E09C0
:10119B0000FFFFF5CF35F00900FFFFF5CF36F00963
:1011AB0000FFFFF5CF37F00A00FFFFF5CF38F066F1
:1011BB00EC09F031C04AF032C04BF033C04CF03484
:1011CB00C04DF063EF09F0FFFF5250800A750FD846
:1011DB00A0F2EF08F0F5EF08F0FFFF4AEF09F0FF80
:1011EB00FF000E0A6E0A0E096E5250076E086A0750
:1011FB00BE080674EC36F0090E07260750040D9D49
:10120B000EF324F66E7D0EF420F76E0900FFFFF54A
:10121B00CF31F00900FFFFF5CF32F00900FFFFF5EA
:10122B00CF33F00A00FFFFF5CF34F0000E046E0A47
:10123B000E036E5250016E026A01BE020606EC36B8
:10124B00F00150040D9D0EF324F66E7D0EF420F785
:10125B006E0900FFFFF5CF35F00900FFFFF5CF3624
:10126B00F00900FFFFF5CF37F00A00FFFFF5CF388D
:10127B00F066EC09F031C04AF032C04BF033C04C91
:10128B00F034C04DF063EF09F0FFFF5250040D9D99
:10129B000EF324F66E7D0EF420F76E0900FFFFF5BA
:1012AB00CF4AF00900FFFFF5CF4BF00900FFFFF528
:1012BB00CF4CF00A00FFFFF5CF4DF0FFFF1200FF00
:1012CB00FFFFFF3450800B3D6E34503424436E339C
:1012DB00AE72EF09F075EF09F0FFFF77EF09F0FF42
:1012EB00FF4380FFFF4350D8B47EEF09F081EF0935
:1012FB00F0FFFF98EF09F0FFFF4328D8A488EF0910
:10130B00F08BEF09F0FFFF94EF09F0FFFF000E31B8
:10131B006E000E326E000E336E000E346EFFFF3316
:10132B008EA1EF09F0FFFF000E316E000E326E0042
:10133B000E336E000E346EFFFF3850800B3D1A38A3
:10134B00503824426E37AEADEF09F0B0EF09F0FF25
:10135B00FFB2EF09F0FFFF4280FFFF4250D8B4B954
:10136B00EF09F0BCEF09F0FFFFD3EF09F0FFFF42ED
:10137B0028D8A4C3EF09F0C6EF09F0FFFFCFEF09A0
:10138B00F0FFFF000E356E000E366E000E376E004E
:10139B000E386EFFFF378EDCEF09F0FFFF000E35C6
:1013AB006E000E366E000E376E000E386EFFFF426B
:1013BB0050D8B4E3EF09F0E6EF09F0FFFFF0EF09C7
:1013CB00F0FFFF4350D8A4EDEF09F0F0EF09F0FF69
:1013DB00FFFBEF09F0FFFF000E316E000E326E00C7
:1013EB000E336E000E346EB5EF0BF0FFFF3750313E
:1013FB0002F3CF48F0F4CF49F048503E6E3F6A40BD
:10140B006A416A4950446E456A466A476A365032A9
:10141B0002F3CF48F0F4CF49F048503E26000E3F80
:10142B00224022412249504426000E4522462247A3
:10143B002235503302F3CF48F0F4CF49F048503EF9
:10144B0026000E3F224022412249504426000E45E1
:10145B00224622472240C041F03FC040F03EC03FF1
:10146B00F03E6A35503202F3CF48F0F4CF49F048E2
:10147B00503E2649503F22000E4022000E4122369C
:10148B00503102F3CF48F0F4CF49F048503E264993
:10149B00503F22000E4022000E412240C041F03F3F
:1014AB00C040F03EC03FF03E6A35503102F3CF48AA
:1014BB00F0F4CF49F048503E2649503F22000E40F1
:1014CB0022000E412237503202F3CF48F0F4CF49BD
:1014DB00F04850442649504522000E4622000E4744
:1014EB002236503302F3CF48F0F4CF49F048504442
:1014FB002649504522000E4622000E472237503314
:10150B0002F3CF48F0F4CF49F04850396E49503AC6
:10151B006E3B6A3C6A3BC03CF03AC03BF039C03A88
:10152B00F0396A395044263A5045223B5046223C0A
:10153B005047223EC039F03FC03AF040C03BF0412B
:10154B00C03CF0190EB0EF0AF0FFFFD8903C323BD5
:10155B00323A323932FFFFE82EAAEF0AF039504403
:10156B00263A5045223B5046223C50472240C04130
:10157B00F03FC040F03EC03FF03E6A425043C0399E
:10158B00F03A6A3926000E3A22820E3924486EFF51
:10159B000E3A20496EEBEF0AF0FFFFD89044364528
:1015AB00364636473641AEDDEF0AF0E0EF0AF0FF84
:1015BB00FFE2EF0AF0FFFF4480FFFFD8903E363F7B
:1015CB0036403641364806D8A04906FFFF46AEF1F5
:1015DB00EF0AF0F4EF0AF0FFFFD2EF0AF0FFFF0083
:1015EB000E426E41AEFCEF0AF0FFEF0AF0FFFF2A4E
:1015FB00EF0BF0FFFFFF0E3E14396EFF0E3F143A58
:10160B006EFF0E40143B6E7F0E41143C6E39503A08
:10161B00103B103C10D8B415EF0BF018EF0BF0FF8C
:10162B00FF1EEF0BF0FFFFFFFF010E426E2AEF0BC9
:10163B00F0FFFF44A024EF0BF027EF0BF0FFFF2A86
:10164B00EF0BF0FFFF19EF0BF0FFFF4250D8B43157
:10165B00EF0BF034EF0BF0FFFF5BEF0BF0FFFF0135
:10166B000E4426000E45224622472247A040EF0B90
:10167B00F043EF0BF0FFFF5BEF0BF0FFFF44C039C4
:10168B00F045C03AF046C03BF047C03CF03C343C20
:10169B00323B323A32393239C044F03AC045F03B32
:1016AB00C046F03CC047F0484A492AFFFF49BE6795
:1016BB00EF0BF0495009E14828D8A067EF0BF06A0F
:1016CB00EF0BF0FFFF75EF0BF0FFFF000E446E000A
:1016DB000E456E800E466E7F0E476EAAEF0BF0FF27
:1016EB00FF49BE84EF0BF0495006E14804D8B081A6
:1016FB00EF0BF084EF0BF0FFFF91EF0BF0FFFF0010
:10170B000E446E000E456E000E466E000E476E00C8
:10171B000E3D6EAAEF0BF0FFFF48C043F0FF0E44E7
:10172B0016FF0E45167F0E4616000E471643A0A158
:10173B00EF0BF0A4EF0BF0FFFFA6EF0BF0FFFF4654
:10174B008EFFFFD8904330476EFFFF3D504712444A
:10175B00C031F045C032F046C033F047C034F0FF23
:10176B00FF1200FFFFFFFF5A50800B636E5A505A57
:10177B0024656E59AEC4EF0BF0C7EF0BF0FFFFC93A
:10178B00EF0BF0FFFF6580FFFF6550D8B4D0EF0B78
:10179B00F0D3EF0BF0FFFFECEF0BF0FFFF6528D85A
:1017AB00A4DAEF0BF0DDEF0BF0FFFFE6EF0BF0FF32
:1017BB00FF000E576E000E586E000E596E000E5A3B
:1017CB006EFFFF598E000E5A6EF5EF0BF0FFFF0008
:1017DB000E576E000E586E000E596E000E5A6EFFAD
:1017EB00FF5E50800B646E63506418D8B400EF0C2E
:1017FB00F003EF0CF0FFFF05EF0CF0FFFF638CFF26
:10180B00FF5E505E24646E5DAE0EEF0CF011EF0CBC
:10181B00F0FFFF13EF0CF0FFFF6480FFFF6450D865
:10182B00B41AEF0CF01DEF0CF0FFFF36EF0CF0FFCE
:10183B00FF6428D8A424EF0CF027EF0CF0FFFF3047
:10184B00EF0CF0FFFF000E5B6E000E5C6E000E5D8A
:10185B006E000E5E6EFFFF5D8E000E5E6E3FEF0C38
:10186B00F0FFFF000E5B6E000E5C6E000E5D6E00F7
:10187B000E5E6EFFFF6550645CD8B047EF0CF04A0C
:10188B00EF0CF0FFFF75EF0CF0FFFF63AC50EF0CAC
:10189B00F053EF0CF0FFFF56EF0CF0FFFF800E63E1
:1018AB001AFFFF65C066F064C065F066C064F05750
:1018BB00C066F05BC057F066C05BF058C066F05C6A
:1018CB00C058F066C05CF059C066F05DC059F06658
:1018DB00C05DF05AC066F05EC05AF066C05EF0FFA5
:1018EB00FF000E666E655064C05FF0606A5F5E005D
:1018FB000E605A60BE8BEF0CF060500AE11A0E5F5F
:10190B005CD8A08BEF0CF08EEF0CF0FFFFD1EF0C3F
:10191B00F0FFFF5750581059105A10D8A498EF0CDD
:10192B00F09CEF0CF0FFFF010E9EEF0CF0FFFF00A1
:10193B000EFFFF666E000E576E000E586E000E59AE
:10194B006E000E5A6E64C065F0DCEF0CF0FFFF66A4
:10195B00A0B2EF0CF0B5EF0CF0FFFFBCEF0CF0FFFB
:10196B00FFD89066300109666EBFEF0CF0FFFFD811
:10197B00906632FFFF57A0C5EF0CF0C8EF0CF0FFDD
:10198B00FFCAEF0CF0FFFF668EFFFF5A345A325935
:10199B003258325732652AFFFF6450655CD8A0D9A4
:1019AB00EF0CF0DCEF0CF0FFFFACEF0CF0FFFF6384
:1019BB00BCE2EF0CF0E5EF0CF0FFFF32EF0DF0FFA8
:1019CB00FF6550D8A4ECEF0CF0EFEF0CF0FFFFFA33
:1019DB00EF0CF0FFFF000E576E000E586E000E5905
:1019EB006E000E5A6E89EF0EF0FFFF5B5057265CB0
:1019FB005058225D5059225E505A225AA008EF0DC2
:101A0B00F00BEF0DF0FFFFD6EF0DF0FFFF66A0110F
:101A1B00EF0DF014EF0DF0FFFF1BEF0DF0FFFFD8F4
:101A2B009066300109666E1EEF0DF0FFFFD89066D1
:101A3B0032FFFF57A024EF0DF027EF0DF0FFFF292A
:101A4B00EF0DF0FFFF668EFFFF5A345A32593258B2
:101A5B00325732652AD6EF0DF0FFFF5B50575C5CB7
:101A6B005058585D5059585A50800A5F6E5E5080DE
:101A7B000A5F58D8B044EF0DF047EF0DF0FFFF753C
:101A8B00EF0DF0FFFF57505B5C5F6E58505C58607A
:101A9B006E59505D58616E5A505E58626EFF0E5F04
:101AAB0024576EFF0E6020586EFF0E6120596EFF9B
:101ABB000E62205A6E800E631A666C6650D8A4694B
:101ACB00EF0DF06CEF0DF0FFFF7EEF0DF0FFFF0160
:101ADB000E5726000E582259225A227EEF0DF0FF88
:101AEB00FF5B50575E5C50585A5D50595A5E505AC6
:101AFB005AFFFF5750581059105A10D8A488EF0DA1
:101B0B00F08BEF0DF0FFFFCDEF0DF0FFFF6650D820
:101B1B00A492EF0DF095EF0DF0FFFFCDEF0DF0FF61
:101B2B00FF000E576E000E586E000E596E000E5AC7
:101B3B006E89EF0EF0FFFFD8905736583659365A4C
:101B4B003666AEABEF0DF0AEEF0DF0FFFFB0EF0D65
:101B5B00F0FFFF5780FFFF66A0B6EF0DF0B9EF0D5A
:101B6B00F0FFFFBEEF0DF0FFFFD8806636C1EF0D23
:101B7B00F0FFFFD8906636FFFF6550D8B4C8EF0D65
:101B8B00F0CBEF0DF0FFFFCDEF0DF0FFFF6506FF84
:101B9B00FF59AED3EF0DF0D6EF0DF0FFFFA0EF0D19
:101BAB00F0FFFF000E646E66AEDEEF0DF0E1EF0DA1
:101BBB00F0FFFF00EF0EF0FFFF66C05FF07F0E5FE0
:101BCB0016D8B4EBEF0DF0EEEF0DF0FFFFF4EF0DC9
:101BDB00F0FFFFFFFF010E646E00EF0EF0FFFF57EB
:101BEB00A0FAEF0DF0FDEF0DF0FFFF00EF0EF0FF91
:101BFB00FFEFEF0DF0FFFF6450D8B407EF0EF00AC4
:101C0B00EF0EF0FFFF3AEF0EF0FFFF010E5726002D
:101C1B000E582259225A225AA016EF0EF019EF0E27
:101C2B00F0FFFF3AEF0EF0FFFF57C05FF058C060B8
:101C3B00F059C061F05AC062F062346232613260B6
:101C4B00325F325FC057F060C058F061C059F0622C
:101C5B00C05AF06528D8B435EF0EF038EF0EF0FF10
:101C6B00FF3AEF0EF0FFFF652AFFFF6528D8B4415E
:101C7B00EF0EF044EF0EF0FFFF4EEF0EF0FFFF659F
:101C8B0050D8A44BEF0EF04EEF0EF0FFFF63EF0EAC
:101C9B00F0FFFF000E576E000E586E000E596E00CF
:101CAB000E5A6E6550D8A45DEF0EF060EF0EF0FF8C
:101CBB00FF63EF0EF0FFFF000E636EFFFF65A06981
:101CCB00EF0EF06CEF0EF0FFFF70EF0EF0FFFF5911
:101CDB008E72EF0EF0FFFF599EFFFFD89065305AC2
:101CEB006E63AE7BEF0EF07EEF0EF0FFFF80EF0E1C
:101CFB00F0FFFF5A8EFFFF57C057F058C058F059EE
:101D0B00C059F05AC05AF0FFFF1200FFFFFFFF004F
:101D1B000E0001DC6F000EDB6FC50ED96F000EDA03
:101D2B006F41EF14F0FFFF250EEF19D8B4A0EF0EA3
:101D3B00F0A3EF0EF0FFFFB0EF0EF0FFFFC1C0D925
:101D4B00FFC2C0DAFFEFC0DFFFC14BC22BDB4BDCA6
:101D5B002B41EF14F0FFFF000EDE6F000EDD6FC3A3
:101D6B00C0F6FFC4C0F7FF0800FFFFF5502E0AD8DE
:101D7B00A4C2EF0EF0C5EF0EF0FFFF0BEF0FF0FF5D
:101D8B00FFDE8DC34BC42B000EEE6F000EED6FF616
:101D9B00EF0EF0FFFFEDC001F0EEC002F0000E04FD
:101DAB006E0A0E036EB8EC32F001C0EDF002C0EE1D
:101DBB00F0D00E6F6EFF0E706EC3C0F6FFC4C0F78F
:101DCB00FF0800FFFFF550716E726A6F507126703D
:101DDB0050722271500001ED277250EE23C34BC499
:101DEB002BFFFFC3C0F6FFC4C0F7FF0800FFFFF5D2
:101DFB005009EC33F0D8B005EF0FF008EF0FF0FF00
:101E0B00FFCFEF0EF0FFFF17EF0FF0FFFF000EEE0F
:101E1B006F000EED6FDE8917EF0FF0FFFFDE8536DB
:101E2B00EF0FF0FFFFC3C0F6FFC4C0F7FF0001C305
:101E3B004BC42B0800FFFFF5CFEFF0EF51000AD892
:101E4B00B455EF14F0640AD8B436EF0FF0020AD889
:101E5B00B413EF0FF00F0AD8B436EF0FF041EF14B5
:101E6B00F0FFFF070EDE15D8B43EEF0FF041EF0F7A
:101E7B00F0FFFF28EF13F0FFFFDEA947EF0FF04A4B
:101E8B00EF0FF0FFFF4FEF0FF0FFFF000EEE6F06AF
:101E9B000EED6FFFFFD9C0D9FFDAC0DAFFDECFE955
:101EAB00F0DECFEAF0DECFEBF0DECFECF0040ED9B4
:101EBB0027000EDA23ECBF68EF0FF065EF0FF0FF92
:101ECB00FF7EEF0FF0FFFFE9C001F0EAC002F0EB7D
:101EDB00C003F0ECC004F029EC33F001C0E9F002D0
:101EEB00C0EAF003C0EBF004C0ECF0030E0001DD20
:101EFB0013FFFF000EE06F000EDF6FE9C01DF0EA6D
:101F0B00C01EF0EBC01FF0ECC020F0000E216E00E5
:101F1B000E226E000E236E000E246E3AEC35F0D8B6
:101F2B00B09AEF0FF09DEF0FF0FFFF39EF10F0FFBE
:101F3B00FF0001EB35EC35820FDF6FE06BFF0EE03E
:101F4B0023DF07D8A0E007DFC001F0E0C002F000FC
:101F5B000E046E030E036EB8EC32F001C0DFF0021C
:101F6B00C0E0F0DFC007F0E0C008F0000E0A6E0A18
:101F7B000E096E74EC36F007C0DFF008C0E0F0001D
:101F8B0001E0BFCEEF0FF0CBEF0FF0FFFFD2EF0F63
:101F9B00F0FFFFDF07D8A0E007FFFFDF5100081EAF
:101FAB00EC07F04AC0E1F04BC0E2F04CC0E3F04D5F
:101FBB00C0E4F0E1C031F0E2C032F0E3C033F0E452
:101FCB00C034F0E9C035F0EAC036F0EBC037F0ECC6
:101FDB00C038F066EC09F031C0E1F032C0E2F0330A
:101FEB00C0E3F034C0E4F0E1C001F0E2C002F0E382
:101FFB00C003F0E4C004F0000E056E000E066E8008
:10200B000E076E3F0E086E79EC37F0D8B010EF105C
:10201B00F013EF10F0FFFF1AEF10F0FFFF0001DFDE
:10202B0007D8A0E00739EF10F0FFFFE1C001F0E2A5
:10203B00C002F0E3C003F0E4C004F0000E056E0034
:10204B000E066E200E076E410E086E79EC37F0D837
:10205B00A032EF10F035EF10F0FFFF39EF10F0FF6B
:10206B00FF0001DF4BE02BFFFF0001EEBF4AEF103B
:10207B00F0EE5107E10D0EED5DD8B047EF10F04AD1
:10208B00EF10F0FFFF68EF10F0FFFFE9C057F0EA29
:10209B00C058F0EBC059F0ECC05AF0ED515CEC3D80
:1020AB00F04AC05BF04BC05CF04CC05DF04DC05EC5
:1020BB00F0B8EC0BF057C0E9F058C0EAF059C0EBA0
:1020CB00F05AC0ECF0FFFF0001E0BF79EF10F0E039
:1020DB005107E10A0EDF5DD8B076EF10F079EF1003
:1020EB00F0FFFFBCEF10F0FFFFE9C01DF0EAC01ED0
:1020FB00F0EBC01FF0ECC020F0000E216E000E22A2
:10210B006E000E236E000E246E3AEC35F0D8B091B3
:10211B00EF10F094EF10F0FFFF16EF11F0FFFFE957
:10212B00C053F0EAC054F0EBC055F0ECC056F00DC4
:10213B00EC38F05350541055105610D8A4A8EF108B
:10214B00F0ABEF10F0FFFF16EF11F0FFFF0001E017
:10215B00BFB9EF10F0E0510AE1020EDF5DD8A0B974
:10216B00EF10F0BCEF10F0FFFF16EF11F0FFFFE1E7
:10217B00C001F0E2C002F0E3C003F0E4C004F05F82
:10218B000E056E700E066E890E076E400E086E7988
:10219B00EC37F0D8B0D4EF10F0D7EF10F0FFFFDF33
:1021AB00EF10F0FFFF0001F70EDF27FF0EE023E536
:1021BB00EF10F0FFFF0001F80EDF27FF0EE023FF0B
:1021CB00FFDF511EEC07F04AC0E1F04BC0E2F04CD0
:1021DB00C0E3F04DC0E4F0E9C001F0EAC002F0EB5F
:1021EB00C003F0ECC004F0E1C005F0E2C006F0E380
:1021FB00C007F0E4C008F004EC3AF001C0E5F002CF
:10220B00C0E6F003C0E7F004C0E8F0000E0001E9FF
:10221B006F000EEA6F000EEB6F000EEC6F53EF11B9
:10222B00F0FFFFE9C053F0EAC054F0EBC055F0ECFF
:10223B00C056F00DEC38F053C0E5F054C0E6F05545
:10224B00C0E7F056C0E8F0E9C067F0EAC068F0EB11
:10225B00C069F0ECC06AF0E5C00FF0E6C010F0E723
:10226B00C011F0E8C012F0000E60EC3CF00FC06B38
:10227B00F010C06CF011C06DF012C06EF06BEC334F
:10228B00F067C0E9F068C0EAF069C0EBF06AC0EC37
:10229B00F0000E0001E06F000EDF6FFFFF010EEF8D
:1022AB006FFFFFEF51040D2D0EF324F66E7E0EF42F
:1022BB0020F76E0900FFFFF550E55D0900FFFFF504
:1022CB0050E6590900FFFFF550E7590900FFFFF5EC
:1022DB0050E859D8B074EF11F077EF11F0FFFF7A97
:1022EB00EF11F0FFFF86EF11F0FFFFEF2B0A0EEF60
:1022FB0019D8A483EF11F086EF11F0FFFF56EF1101
:10230B00F0FFFF030EDD156F6E000EDE15706E6FA6
:10231B00507010D8B494EF11F097EF11F0FFFFF459
:10232B00EF11F0FFFFC1C0D9FFC2C0DAFF2D0EDFE6
:10233B006EFFFFC14BC22BDB4BDC2BF4EF11F0FF1D
:10234B00FFE5C001F0E6C002F0E7C003F0E8C0040F
:10235B00F0EF51040D2D0EF324F66E7E0EF420F7E4
:10236B006E0900FFFFF5CF05F00900FFFFF5CF0663
:10237B00F00900FFFFF5CF07F00A00FFFFF5CF08CC
:10238B00F0DBEC34F001C0E1F002C0E2F003C0E39B
:10239B00F004C0E4F0E1C00EF0E2C00FF0E3C010B7
:1023AB00F0E4C011F00A0E126E000E136E000E1444
:1023BB006E000E156E8AEC34F00EC0E1F00FC0E229
:1023CB00F010C0E3F011C0E4F00001E151300FC197
:1023DB00C0D9FFC2C0DAFFDF6E9EEF11F0FFFFEF37
:1023EB0007EF29D8A4FCEF11F0FFEF11F0FFFFA5C9
:1023FB00EF11F0FFFF10EF12F0FFFFC1C0D9FFC2CA
:10240B00C0DAFF300EDF6EC14BC22BDB4BDC2BDF98
:10241B0007D8A0E007FFFFE0BF1FEF12F0E0510667
:10242B00E1DF05D8B01CEF12F01FEF12F0FFFF0237
:10243B00EF12F0FFFFEEBF2CEF12F0EE510AE109A5
:10244B000EED5DD8A02CEF12F02FEF12F0FFFF3442
:10245B00EF12F0FFFF080EEF6F37EF12F0FFFFEDFB
:10246B00C0EFF0FFFFEF51ED5F000EEE5BEF51D8C9
:10247B00B442EF12F045EF12F0FFFF50EF12F0FFF6
:10248B00FFC1C0D9FFC2C0DAFF2E0EDF6EC14BC237
:10249B002BDB4BDC2BFFFFEF511EEC07F04AC0D5BB
:1024AB00F04BC0D6F04CC0D7F04DC0D8F0E9C035DA
:1024BB00F0EAC036F0EBC037F0ECC038F0D5C031E5
:1024CB00F0D6C032F0D7C033F0D8C034F066EC0988
:1024DB00F031C053F032C054F033C055F034C05615
:1024EB00F00DEC38F053C0E5F054C0E6F055C0E702
:1024FB00F056C0E8F0FDEF12F0FFFFE5C001F0E68B
:10250B00C002F0E7C003F0E8C004F0EF51040D2D5A
:10251B000EF324F66E7E0EF420F76E0900FFFFF526
:10252B00CF05F00900FFFFF5CF06F00900FFFFF51F
:10253B00CF07F00A00FFFFF5CF08F0DBEC34F0011A
:10254B00C0E1F002C0E2F003C0E3F004C0E4F0E14C
:10255B00C00EF0E2C00FF0E3C010F0E4C011F00ABF
:10256B000E126E000E136E000E146E000E156E8A98
:10257B00EC34F00EC0E1F00FC0E2F010C0E3F0114C
:10258B00C0E4F00001E151300FC1C0D9FFC2C0DA85
:10259B00FFDF6EC14BC22BDB4BDC2BE5C00EF0E635
:1025AB00C00FF0E7C010F0E8C011F0EF51040D2D93
:1025BB000EF324F66E7E0EF420F76E0900FFFFF586
:1025CB00CF12F00900FFFFF5CF13F00900FFFFF565
:1025DB00CF14F00A00FFFFF5CF15F08AEC34F00EA4
:1025EB00C0E5F00FC0E6F010C0E7F011C0E8F0FF57
:1025FB00FF0001EF07EF29D8A406EF13F009EF1343
:10260B00F0FFFF82EF12F0FFFF1AEF13F0FFFFC195
:10261B00C0D9FFC2C0DAFF300EDF6EC14BC22BDB5D
:10262B004BDC2BED07D8A0EE07FFFFED51EE11D8D9
:10263B00A422EF13F025EF13F0FFFF0CEF13F0FFC5
:10264B00FF41EF14F0FFFFD9C0D9FFDAC0DAFFDE8C
:10265B00CFE5F0DDCFE6F0000EE6BFFF0EE76FE84B
:10266B006F020ED927000EDA23E8BF42EF13F03FBB
:10267B00EF13F0FFFF4DEF13F0FFFF030EDD13E839
:10268B001FE71FE61FE56D000EE623E723E823FF98
:10269B00FFED51EE11D8A455EF13F058EF13F0FFE7
:1026AB00FF68EF13F0FFFFE551E611E711E811D8D2
:1026BB00A462EF13F065EF13F0FFFF68EF13F0FF69
:1026CB00FFED4BEE2BFFFF010EEF6FFFFFEF510402
:1026DB000D2D0EF324F66E7E0EF420F76E0900FF1F
:1026EB00FFF550E55D0900FFFFF550E6590900FFC6
:1026FB00FFF550E7590900FFFFF550E859D8B089AD
:10270B00EF13F08CEF13F0FFFF8FEF13F0FFFF9B36
:10271B00EF13F0FFFFEF2B0A0EEF19D8A498EF136E
:10272B00F09BEF13F0FFFF6BEF13F0FFFFEF516F19
:10273B006E706AED516F5C7050800A716EEE518055
:10274B000A7158D8B0ACEF13F0AFEF13F0FFFFB234
:10275B00EF13F0FFFFCAEF13F0FFFFEF516F6E7037
:10276B006A6F50ED5DEE51800A716E7050800A7188
:10277B0058D8B0C3EF13F0C6EF13F0FFFFCAEF1337
:10278B00F0FFFFEFC0EDF0EE6BFFFF030EDD156FFB
:10279B006E000EDE15706E6F507010D8B4D8EF133C
:1027AB00F0DBEF13F0FFFF32EF14F0FFFFC1C0D9E6
:1027BB00FFC2C0DAFF2D0EDF6EFFFFC14BC22BDB5A
:1027CB004BDC2B32EF14F0FFFFEDC06FF0EEC0705F
:1027DB00F0D8906F367036D8906F3670362D0E6FEE
:1027EB0024F66E7E0E7020F76E0900FFFFF5CF0505
:1027FB00F00900FFFFF5CF06F00900FFFFF5CF074B
:10280B00F00A00FFFFF5CF08F0E5C001F0E6C002CB
:10281B00F0E7C003F0E8C004F0DBEC34F001C00ECD
:10282B00F002C00FF003C010F004C011F00A0E123A
:10283B006E000E136E000E146E000E156E8AEC34C5
:10284B00F00E50300F0001EF6FC1C0D9FFC2C0DADC
:10285B00FFEFC0DFFFE2EF13F0FFFFED07D8A0EEB5
:10286B0007ED2906E1EE29D8A43EEF14F041EF1451
:10287B00F0FFFFE9EF13F0FFFFC3C0F6FFC4C0F793
:10288B00FFC34BC42B0800FFFFF5CFEFF0EF51D880
:10289B00A452EF14F055EF14F0FFFF98EF0EF0FF7A
:1028AB00FFC1C0D9FFC2C0DAFF000EDF6EDBC0C1B3
:1028BB00F0DCC0C2F01200FFFFFFFFCDEC32F09056
:1028CB00EC33F0820E94EC32F0040E0001C16F0178
:1028DB000EC26F860EC36F7F0EC46F8CEC0EF000B2
:1028EB0001C151EAEC32F0C40E94EC32F0040E004C
:1028FB0001C16F010EC26FBC0EC36F7F0EC46F8C14
:10290B00EC0EF00001C151EAEC32F0030E0001F1C4
:10291B006FAB0EF06F3F0EFFFFE82EFDD7F02FFBD6
:10292B00D7F12FF9D700D000F0010E94EC32F0FF65
:10293B00FF81CFBCF00001BC390F0BBE6FBC510F38
:10294B000BC06F80500F0BBD6FBAEF1FF0FFFF0175
:10295B000E94EC32F0040E0001C16F010EC26FB386
:10296B000EC36F7F0EC46FBEC0C5F0C66BC0C0C7B1
:10297B00F0C86B8CEC0EF00001C151EAEC32F000A8
:10298B0001BE51C025BB6FC00E94EC32F0040E009B
:10299B0001C16F010EC26F5D0EC36F7F0EC46FBBA3
:1029AB00C0C5F0C66B8CEC0EF00001C151EAEC32E5
:1029BB00F0FFFF620E0001F06F760EFFFFE82EFDB9
:1029CB00D7F02FFBD700F09DEF14F0FFFFC051BEE7
:1029DB005DD8A0F3EF14F0F6EF14F0FFFF44EF1502
:1029EB00F0FFFF010E94EC32F0040E0001C16F01F9
:1029FB000EC26F3C0EC36F7F0EC46FBEC0C5F0C658
:102A0B006B8CEC0EF00001C151EAEC32F0830E94AA
:102A1B00EC32F0040E0001C16F010EC26FD20EC377
:102A2B006F7F0EC46FC0C0C5F0C66B8CEC0EF00090
:102A3B0001C151EAEC32F00001C051BE5DBB6FC069
:102A4B000E94EC32F0040E0001C16F010EC26F3018
:102A5B000EC36F7F0EC46FBBC0C5F0C66B8CEC0E84
:102A6B00F00001C151EAEC32F0620E0001F06F761A
:102A7B000EFFFFE82EFDD7F02FFBD700F0FFFF0076
:102A8B0001C051BE5DD8B04DEF15F050EF15F0FF02
:102A9B00FF9DEF14F0FFFF010E94EC32F0040E00DB
:102AAB0001C16F010EC26F3C0EC36F7F0EC46FBEB0
:102ABB00C0C5F0C66B8CEC0EF00001C151EAEC32D4
:102ACB00F0830E94EC32F0040E0001C16F010EC2C4
:102ADB006FD20EC36F7F0EC46FC0C0C5F0C66B8CB8
:102AEB00EC0EF00001C151EAEC32F00001BE51C016
:102AFB005DBB6FC00E94EC32F0040E0001C16F0190
:102B0B000EC26F4E0EC36F7F0EC46FBBC0C5F0C637
:102B1B006B8CEC0EF00001C151EAEC32F0DEEF14DD
:102B2B00F0FFFF010E94EC32F0040E0001C16F01B7
:102B3B000EC26F3C0EC36F7F0EC46FBEC0C5F0C616
:102B4B006B8CEC0EF00001C151EAEC32F0830E9469
:102B5B00EC32F0040E0001C16F010EC26FCD0EC33B
:102B6B006F7F0EC46FC0C0C5F0C66B8CEC0EF0004F
:102B7B0001C151EAEC32F00001BE51C003F3CFBBEF
:102B8B00F0C00E94EC32F0040E0001C16F010EC2C6
:102B9B006F5D0EC36F7F0EC46FBBC0C5F0C66B8C71
:102BAB00EC0EF00001C151EAEC32F0DEEF14F0FF55
:102BBB00FF010E94EC32F00001C051BE5DD8A0E9CC
:102BCB00EF15F0ECEF15F0FFFF3AEF16F0FFFF01FA
:102BDB000E94EC32F0040E0001C16F010EC26F3C7B
:102BEB000EC36F7F0EC46FBEC0C5F0C66B8CEC0EF0
:102BFB00F00001C151EAEC32F0830E94EC32F00498
:102C0B000E0001C16F010EC26FD70EC36F7F0EC4D2
:102C1B006FC0C0C5F0C66B8CEC0EF00001C151EA61
:102C2B00EC32F0C0C001F00001BE51C9EC33F00032
:102C3B0001F06FF051B46FB56BC00E94EC32F00431
:102C4B000E0001C16F010EC26F5D0EC36F7F0EC40C
:102C5B006FB4C0C5F0B5C0C6F08CEC0EF00001C16E
:102C6B0051EAEC32F0DEEF14F0FFFFC00E94EC32C1
:102C7B00F0040E0001C16F010EC26F210EC36F7FF6
:102C8B000EC46F8CEC0EF00001C151EAEC32F0DE99
:102C9B00EF14F0FFFF040EBF6FBF51D8A458EF160F
:102CAB00F05BEF16F0FFFF5EEF16F0FFFF7EEF1607
:102CBB00F0FFFFA30EBF25D96EDA6A000EDA22BE33
:102CCB0051010BDF6EBEC007F0086A000E0A6E02E0
:102CDB000E096E74EC36F007500001BE6FBF07BFD4
:102CEB0051D8A47BEF16F07EEF16F0FFFF5EEF16C8
:102CFB00F0FFFF800E94EC32F0040E0001C16F0167
:102D0B000EC26F930EC36F7F0EC46FA4C0C5F0C607
:102D1B006BA5C0C7F0C86BA6C0C9F0CA6BA7C0CB68
:102D2B00F0CC6B8CEC0EF00001C151EAEC32F004EC
:102D3B000E0001BF6FFFFFBF51D8A4A7EF16F0AA7B
:102D4B00EF16F0FFFFADEF16F0FFFFC6EF16F0FF2B
:102D5B00FF9E0EBF25D96EDA6A000EDA22C0510132
:102D6B000BDF6EC0C007F0086A000E0A6E020E0978
:102D7B006E74EC36F007500001C06FBF07A0EF1662
:102D8B00F0FFFF870E94EC32F0040E0001C16F01CF
:102D9B000EC26F9E0EC36F7F0EC46F9FC0C5F0C671
:102DAB006BA0C0C7F0C86BA1C0C9F0CA6BA2C0CBE7
:102DBB00F0CC6B8CEC0EF00001C151EAEC32F0015F
:102DCB000E0001BF6FFFFF040EBF65EFEF16F0F2B1
:102DDB00EF16F0FFFFF5EF16F0FFFF10EF17F0FF08
:102DEB00FF990EBF25D96EDA6A000EDA229E0EBF4E
:102DFB0025E16EE26A000EE222E750F06FA30EBFF0
:102E0B0025E16EE26A000EE222E750F015DF6EBF9D
:102E1B002BE8EF16F0FFFFC00E94EC32F0040E001F
:102E2B0001C16F010EC26FCC0EC36F7E0EC46F9AC1
:102E3B00C0C5F0C66B9BC0C7F0C86B9CC0C9F0CABD
:102E4B006B9DC0CBF0CC6B8CEC0EF00001C151EA4A
:102E5B00EC32F0DEEF14F0FFFF040EBF6FBF51D862
:102E6B00A43AEF17F03DEF17F0FFFF40EF17F0FF1D
:102E7B00FF60EF17F0FFFFA30EBF25D96EDA6A00D4
:102E8B000EDA22BE51010BDF6EBEC007F0086A00DE
:102E9B000E0A6E020E096E74EC36F007500001BE7E
:102EAB006FBF07BF51D8A45DEF17F060EF17F0FFAE
:102EBB00FF40EF17F0FFFF800E94EC32F0040E0092
:102ECB0001C16F010EC26F930EC36F7F0EC46FA44F
:102EDB00C0C5F0C66BA5C0C7F0C86BA6C0C9F0CA09
:102EEB006BA7C0CBF0CC6B8CEC0EF00001C151EAA0
:102EFB00EC32F0040E0001BF6FFFFFBF51D8A48965
:102F0B00EF17F08CEF17F0FFFF8FEF17F0FFFFA815
:102F1B00EF17F0FFFF9E0EBF25D96EDA6A000EDAAF
:102F2B0022C051010BDF6EC0C007F0086A000E0A09
:102F3B006E020E096E74EC36F007500001C06FBFC5
:102F4B000782EF17F0FFFF870E94EC32F0040E00B0
:102F5B0001C16F010EC26F9E0EC36F7F0EC46F9FB8
:102F6B00C0C5F0C66BA0C0C7F0C86BA1C0C9F0CA82
:102F7B006BA2C0CBF0CC6B8CEC0EF00001C151EA14
:102F8B00EC32F0010E0001BF6FFFFF040EBF65D1E5
:102F9B00EF17F0D4EF17F0FFFFD7EF17F0FFFFF2AB
:102FAB00EF17F0FFFF990EBF25D96EDA6A000EDA24
:102FBB00229E0EBF25E16EE26A000EE222E750F080
:102FCB006FA30EBF25E16EE26A000EE222E750F01E
:102FDB0011DF6EBF2BCAEF17F0FFFFC00E94EC3260
:102FEB00F0040E0001C16F010EC26FBB0EC36F7EEA
:102FFB000EC46F9AC0C5F0C66B9BC0C7F0C86B9C64
:10300B00C0C9F0CA6B9DC0CBF0CC6B8CEC0EF00042
:10301B0001C151EAEC32F0DEEF14F0FFFF040EBFFA
:10302B006FBF51D8A41CEF18F01FEF18F0FFFF2251
:10303B00EF18F0FFFF42EF18F0FFFFA30EBF25D9EB
:10304B006EDA6A000EDA22BE51010BDF6EBEC007CC
:10305B00F0086A000E0A6E020E096E74EC36F00769
:10306B00500001BE6FBF07BF51D8A43FEF18F0420D
:10307B00EF18F0FFFF22EF18F0FFFF800E94EC32F9
:10308B00F0040E0001C16F010EC26F930EC36F7F70
:10309B000EC46FA4C0C5F0C66BA5C0C7F0C86BA6A5
:1030AB00C0C9F0CA6BA7C0CBF0CC6B8CEC0EF00098
:1030BB0001C151EAEC32F0040E0001BF6FFFFFBFFC
:1030CB0051D8A46BEF18F06EEF18F0FFFF71EF18EB
:1030DB00F0FFFF8AEF18F0FFFF9E0EBF25D96EDAC7
:1030EB006A000EDA22C051010BDF6EC0C007F00878
:1030FB006A000E0A6E020E096E74EC36F007500071
:10310B0001C06FBF0764EF18F0FFFF870E94EC321E
:10311B00F0040E0001C16F010EC26F9E0EC36F7FD4
:10312B000EC46F9FC0C5F0C66BA0C0C7F0C86BA123
:10313B00C0C9F0CA6BA2C0CBF0CC6B8CEC0EF0000C
:10314B0001C151EAEC32F0010E0001BF6FFFFF0429
:10315B000EBF65B3EF18F0B6EF18F0FFFFB9EF181D
:10316B00F0FFFFD4EF18F0FFFF990EBF25D96EDAF1
:10317B006A000EDA229E0EBF25E16EE26A000EE2B5
:10318B0022E750F06FA30EBF25E16EE26A000EE25C
:10319B0022E750F019DF6EBF2BACEF18F0FFFFC02A
:1031AB000E94EC32F0040E0001C16F010EC26FEEF3
:1031BB000EC36F7E0EC46F9AC0C5F0C66B9BC0C7A3
:1031CB00F0C86B9CC0C9F0CA6B9DC0CBF0CC6B8CAC
:1031DB00EC0EF00001C151EAEC32F0DEEF14F0FF1F
:1031EB00FF040EBF6FBF51D8A4FEEF18F001EF190B
:1031FB00F0FFFF04EF19F0FFFF24EF19F0FFFFA31F
:10320B000EBF25D96EDA6A000EDA22BE51010BDF32
:10321B006EBEC007F0086A000E0A6E020E096E74CD
:10322B00EC36F007500001BE6FBF07BF51D8A42189
:10323B00EF19F024EF19F0FFFF04EF19F0FFFF80F7
:10324B000E94EC32F0040E0001C16F010EC26F93AD
:10325B000EC36F7F0EC46FA4C0C5F0C66BA5C0C7ED
:10326B00F0C86BA6C0C9F0CA6BA7C0CBF0CC6B8CF7
:10327B00EC0EF00001C151EAEC32F0040E0001BF7C
:10328B006FFFFFBF51D8A44DEF19F050EF19F0FFAE
:10329B00FF53EF19F0FFFF6CEF19F0FFFF9E0EBF0E
:1032AB0025D96EDA6A000EDA22C051010BDF6EC02F
:1032BB00C007F0086A000E0A6E020E096E74EC3637
:1032CB00F007500001C06FBF0746EF19F0FFFF87F3
:1032DB000E94EC32F0040E0001C16F010EC26F9E12
:1032EB000EC36F7F0EC46F9FC0C5F0C66BA0C0C767
:1032FB00F0C86BA1C0C9F0CA6BA2C0CBF0CC6B8C71
:10330B00EC0EF00001C151EAEC32F0010E0001BFEE
:10331B006FFFFF040EBF6595EF19F098EF19F0FFE3
:10332B00FF9BEF19F0FFFFC0EF19F0FFFF990EBFE6
:10333B0025D96EDA6A000EDA222C0EBF25E16EE279
:10334B006A010EE222E750F06F9E0EBF25E16EE29E
:10335B006A000EE222E750F16FA30EBF25E16EE289
:10336B006A000EE222E750F115FF0AF015DF6EBF7F
:10337B002B8EEF19F0FFFFC00E94EC32F0040E0011
:10338B0001C16F010EC26FFF0EC36F7E0EC46F9A29
:10339B00C0C5F0C66B9BC0C7F0C86B9CC0C9F0CA58
:1033AB006B9DC0CBF0CC6B8CEC0EF00001C151EAE5
:1033BB00EC32F0DEEF14F0FFFF010E94EC32F00470
:1033CB000E0001BF6FFFFFBF51D8A4EFEF19F0F252
:1033DB00EF19F0FFFFF5EF19F0FFFF0EEF1AF0FFFB
:1033EB00FFA30EBF25D96EDA6A000EDA22BE510199
:1033FB000BDF6EBEC007F0086A000E0A6E020E09E4
:10340B006E74EC36F007500001BE6FBF07E8EF1982
:10341B00F0FFFF800E94EC32F0040E0001C16F013F
:10342B000EC26F930EC36F7F0EC46FA4C0C5F0C6E0
:10343B006BA5C0C7F0C86BA6C0C9F0CA6BA7C0CB41
:10344B00F0CC6B8CEC0EF00001C151EAEC32F004C5
:10345B000E0001BF6FFFFFBF51D8A437EF1AF03A30
:10346B00EF1AF0FFFF3DEF1AF0FFFF56EF1AF0FFD8
:10347B00FF9E0EBF25D96EDA6A000EDA22C051010B
:10348B000BDF6EC0C007F0086A000E0A6E020E0951
:10349B006E74EC36F007500001C06FBF0730EF1AA7
:1034AB00F0FFFF870E94EC32F0040E0001C16F01A8
:1034BB000EC26F9E0EC36F7F0EC46F9FC0C5F0C64A
:1034CB006BA0C0C7F0C86BA1C0C9F0CA6BA2C0CBC0
:1034DB00F0CC6B8CEC0EF00001C151EAEC32F00138
:1034EB000E0001BF6FFFFF040EBF657FEF1AF08266
:1034FB00EF1AF0FFFF85EF1AF0FFFFAAEF1AF0FFAC
:10350B00FF990EBF25D96EDA6A000EDA222C0EBF98
:10351B0025E16EE26A010EE222E750F06F9E0EBFCC
:10352B0025E16EE26A000EE222E750F16FA30EBFB7
:10353B0025E16EE26A000EE222E750F111FF0AF07C
:10354B0015DF6EBF2B78EF1AF0FFFFC00E94EC3235
:10355B00F0040E0001C16F010EC26FDD0EC36F7E52
:10356B000EC46F9AC0C5F0C66B9BC0C7F0C86B9CEE
:10357B00C0C9F0CA6B9DC0CBF0CC6B8CEC0EF000CD
:10358B0001C151EAEC32F0DEEF14F0FFFF040EBF85
:10359B006FBF51D8A4D4EF1AF0D7EF1AF0FFFFDAB0
:1035AB00EF1AF0FFFFFAEF1AF0FFFFA30EBF25D9BA
:1035BB006EDA6A000EDA22BE51010BDF6EBEC00757
:1035CB00F0086A000E0A6E020E096E74EC36F007F4
:1035DB00500001BE6FBF07BF51D8A4F7EF1AF0FA26
:1035EB00EF1AF0FFFFDAEF1AF0FFFF800E94EC32C8
:1035FB00F0040E0001C16F010EC26F930EC36F7FFB
:10360B000EC46FA4C0C5F0C66BA5C0C7F0C86BA62F
:10361B00C0C9F0CA6BA7C0CBF0CC6B8CEC0EF00022
:10362B0001C151EAEC32F0040E0001BF6FFFFFBF86
:10363B0051D8A423EF1BF026EF1BF0FFFF29EF1B44
:10364B00F0FFFF42EF1BF0FFFF9E0EBF25D96EDA96
:10365B006A000EDA22C051010BDF6EC0C007F00802
:10366B006A000E0A6E020E096E74EC36F0075000FB
:10367B0001C06FBF071CEF1BF0FFFF870E94EC32EE
:10368B00F0040E0001C16F010EC26F9E0EC36F7F5F
:10369B000EC46F9FC0C5F0C66BA0C0C7F0C86BA1AE
:1036AB00C0C9F0CA6BA2C0CBF0CC6B8CEC0EF00097
:1036BB0001C151EAEC32F0010E0001BF6FFFFF04B4
:1036CB000EBF656BEF1BF06EEF1BF0FFFF71EF1B77
:1036DB00F0FFFF96EF1BF0FFFF990EBF25D96EDAB7
:1036EB006A000EDA222C0EBF25E16EE26A010EE2B1
:1036FB0022E750F06F9E0EBF25E16EE26A000EE2EC
:10370B0022E750F16FA30EBF25E16EE26A000EE2D5
:10371B0022E750F119FF0AF015DF6EBF2B64EF1B88
:10372B00F0FFFFC00E94EC32F0040E0001C16F01EC
:10373B000EC26F100EC36F7F0EC46F9AC0C5F0C65A
:10374B006B9BC0C7F0C86B9CC0C9F0CA6B9DC0CB4C
:10375B00F0CC6B8CEC0EF00001C151EAEC32F0DED8
:10376B00EF14F0FFFF080EBF6FBF51D8A4C0EF1BC3
:10377B00F0C3EF1BF0FFFFC6EF1BF0FFFFE6EF1BE5
:10378B00F0FFFF910EBF25D96EDA6A000EDA22BC6C
:10379B0051010BDF6EBCC007F0086A000E0A6E0207
:1037AB000E096E74EC36F007500001BC6FBF07BFFB
:1037BB0051D8A4E3EF1BF0E6EF1BF0FFFFC6EF1BA6
:1037CB00F0FFFF800E94EC32F0040E0001C16F018C
:1037DB000EC26F8F0EC36F7E0EC46F92C0C5F0C644
:1037EB006B93C0C7F0C86B94C0C9F0CA6B95C0CBC4
:1037FB00F0CC6B96C0CDF0CE6B97C0CFF0D06B9862
:10380B00C0D1F0D26B99C0D3F0D46B8CEC0EF0001E
:10381B0001C151EAEC32F081CFBCF00001BC450193
:10382B000BB86FBC51BC25B76FB851B725BA6F0831
:10383B000EBF6FFFFFBF51D8A426EF1CF029EF1C62
:10384B00F0FFFF2CEF1CF0FFFF45EF1CF0FFFF8993
:10385B000EBF25D96EDA6A000EDA22BA51010BDFE0
:10386B006EBAC007F0086A000E0A6E020E096E747B
:10387B00EC36F007500001BA6FBF071FEF1CF0FFCB
:10388B00FFC00E94EC32F0040E0001C16F010EC2AA
:10389B006FA50EC36F7E0EC46F8AC0C5F0C66B8B4F
:1038AB00C0C7F0C86B8CC0C9F0CA6B8DC0CBF0CC55
:1038BB006B8EC0CDF0CE6B8FC0CFF0D06B90C0D1E4
:1038CB00F0D26B91C0D3F0D46B8CEC0EF00001C135
:1038DB0051EAEC32F0DEEF14F0FFFF080EBF6FBFC2
:1038EB0051D8A47BEF1CF07EEF1CF0FFFF81EF1C87
:1038FB00F0FFFFA1EF1CF0FFFF910EBF25D96EDA91
:10390B006A000EDA22BC51010BDF6EBCC007F00857
:10391B006A000E0A6E020E096E74EC36F007500048
:10392B0001BC6FBF07BF51D8A49EEF1CF0A1EF1CC9
:10393B00F0FFFF81EF1CF0FFFF800E94EC32F004E0
:10394B000E0001C16F010EC26F8F0EC36F7E0EC4CE
:10395B006F92C0C5F0C66B93C0C7F0C86B94C0C95B
:10396B00F0CA6B95C0CBF0CC6B96C0CDF0CE6B97FD
:10397B00C0CFF0D06B98C0D1F0D26B99C0D3F0D43C
:10398B006B8CEC0EF00001C151EAEC32F081CFBC34
:10399B00F00001BC39F00BB86FBC390F0BB76FB827
:1039AB0051B725BA6F080EBF6FFFFFBF51D8A4E107
:1039BB00EF1CF0E4EF1CF0FFFFE7EF1CF0FFFF0044
:1039CB00EF1DF0FFFF890EBF25D96EDA6A000EDA04
:1039DB0022BA51010BDF6EBAC007F0086A000E0A5B
:1039EB006E020E096E74EC36F007500001BA6FBF11
:1039FB0007DAEF1CF0FFFFC00E94EC32F0040E0060
:103A0B0001C16F010EC26FA50EC36F7E0EC46F8A0C
:103A1B00C0C5F0C66B8BC0C7F0C86B8CC0C9F0CAF1
:103A2B006B8DC0CBF0CC6B8EC0CDF0CE6B8FC0CF7F
:103A3B00F0D06B90C0D1F0D26B91C0D3F0D46B8C23
:103A4B00EC0EF00001C151EAEC32F0DEEF14F0FFA6
:103A5B00FF010E94EC32F0800E94EC32F0040E0069
:103A6B0001C16F010EC26F3F0EC36F7F0EC46FBEDD
:103A7B00C0C5F0C66BC0C0C7F0C86B8CEC0EF000B5
:103A8B0001C151EAEC32F00001C0510F6E106A1106
:103A9B006A126A000E60EC3CF00FC0FAF010C0FB2B
:103AAB00F011C0FCF012C0FDF00001BE510F6E1002
:103ABB006A116A126A000E60EC3CF00FC0F2F01053
:103ACB00C0F3F011C0F4F012C0F5F0FAC0D0F0FB67
:103ADB00C0D1F0FCC0D2F0FDC0D3F0F2C0CCF0F3FB
:103AEB00C0CDF0F4C0CEF0F5C0CFF008EC00F0CCB8
:103AFB00C0F6F0CDC0F7F0CEC0F8F0CFC0F9F0F6BD
:103B0B00C053F0F7C054F0F8C055F0F9C056F00DA3
:103B1B00EC38F053C0B4F054C0B5F0C00E94EC3296
:103B2B00F0040E0001C16F010EC26FC50EC36F7F93
:103B3B000EC46FB4C0C5F0B5C0C6F08CEC0EF0006F
:103B4B0001C151EAEC32F0DEEF14F0FFFF010E94ED
:103B5B00EC32F0800E94EC32F0040E0001C16F01D8
:103B6B000EC26F6B0EC36F7F0EC46FC0C0C5F0C6A5
:103B7B006BBEC0C7F0C86B8CEC0EF00001C151EAF4
:103B8B00EC32F0C0C009F00A6A000E086E010E0795
:103B9B006E74EC36F007C00FF008C010F0000E107A
:103BAB00BEFF0E116E126E010E60EC3CF00FC0A842
:103BBB00F010C0A9F011C0AAF012C0ABF00001BE0A
:103BCB00510F6E106A116A126A000E60EC3CF00F16
:103BDB00C0FAF010C0FBF011C0FCF012C0FDF0FAFF
:103BEB00C0CCF0FBC0CDF0FCC0CEF0FDC0CFF0A838
:103BFB00C0D0F0A9C0D1F0AAC0D2F0ABC0D3F008AE
:103C0B00EC00F0CCC0ACF0CDC0ADF0CEC0AEF0CF80
:103C1B00C0AFF0C00E94EC32F0040E0001C16F0186
:103C2B000EC26FA90EC36F7F0EC46FACC0C5F0ADD3
:103C3B00C0C6F0AEC0C7F0AFC0C8F08CEC0EF00041
:103C4B0001C151EAEC32F0DEEF14F0FFFF010E94EC
:103C5B00EC32F0040E0001BF6FFFFFBF51D8A43947
:103C6B00EF1EF03CEF1EF0FFFF3FEF1EF0FFFF5883
:103C7B00EF1EF0FFFFA30EBF25D96EDA6A000EDA36
:103C8B0022BE51010BDF6EBEC007F0086A000E0AA0
:103C9B006E020E096E74EC36F007500001BE6FBF5A
:103CAB000732EF1EF0FFFF800E94EC32F0040E0093
:103CBB0001C16F010EC26F790EC36F7F0EC46FA46B
:103CCB00C0C5F0C66BA5C0C7F0C86BA6C0C9F0CA0B
:103CDB006BA7C0CBF0CC6B8CEC0EF00001C151EAA2
:103CEB00EC32F0890E94EC32F0040E0001C16F013E
:103CFB000EC26FDC0EC36F7F0EC46FC0C0C5F0C6A3
:103D0B006B8CEC0EF00001C151EAEC32F081CFBCB0
:103D1B00F00001BC390F0BBE6F090EC06198EF1E8E
:103D2B00F09BEF1EF0FFFF19EF1FF0FFFFC0C0F07D
:103D3B00F0BEC0F1F0F02BA6EF1EF0FFFFD890F114
:103D4B0037FFFFF02FA3EF1EF00001F151BA6FC048
:103D5B00510808BB6FBBC0F0F0BEC0F1F0F02BBA3E
:103D6B00EF1EF0FFFFD890F133FFFFF02FB7EF1EE0
:103D7B00F00001F151B96FB951BA11B86F080EBF0C
:103D8B006FFFFFBF51D8A4CDEF1EF0D0EF1EF0FF99
:103D9B00FFD3EF1EF0FFFFECEF1EF0FFFF800EBF17
:103DAB0025D96EDA6A000EDA22B851010BDF6EB834
:103DBB00C007F0086A000E0A6E020E096E74EC362C
:103DCB00F007500001B86FBF07C6EF1EF0FFFFC032
:103DDB000E94EC32F0040E0001C16F010EC26F792C
:103DEB000EC36F7E0EC46F81C0C5F0C66B82C0C799
:103DFB00F0C86B83C0C9F0CA6B84C0CBF0CC6B85A9
:103E0B00C0CDF0CE6B86C0CFF0D06B87C0D1F0D2D7
:103E1B006B88C0D3F0D46B8CEC0EF00001C151EA6F
:103E2B00EC32F0DEEF14F0FFFF080EC06520EF1F41
:103E3B00F023EF1FF0FFFFDEEF14F0FFFFC0C0F029
:103E4B00F0BEC0F1F0F02B2EEF1FF0FFFFD890F17A
:103E5B0037FFFFF02F2BEF1FF00001F151BA6FC0AE
:103E6B0051F80FBB6FBBC0F0F0BEC0F1F0F02B42AE
:103E7B00EF1FF0FFFFD890F137FFFFF02F3FEF1F41
:103E8B00F00001F151B96FBB510808B86FB8C0F021
:103E9B00F0BEC0F1F0F02B56EF1FF0FFFFD890F102
:103EAB0033FFFFF02F53EF1FF00001F151B76FB746
:103EBB0051B911B66F080EBF6FFFFFBF51D8A46980
:103ECB00EF1FF06CEF1FF0FFFF6FEF1FF0FFFF888E
:103EDB00EF1FF0FFFF800EBF25D96EDA6A000EDAF6
:103EEB0022B651010BDF6EB6C007F0086A000E0A4E
:103EFB006E020E096E74EC36F007500001B66FBF00
:103F0B000762EF1FF0FFFFC00E94EC32F0040E00BF
:103F1B0001C16F010EC26F790EC36F7E0EC46F812C
:103F2B00C0C5F0C66B82C0C7F0C86B83C0C9F0CAEE
:103F3B006B84C0CBF0CC6B85C0CDF0CE6B86C0CF85
:103F4B00F0D06B87C0D1F0D26B88C0D3F0D46B8C20
:103F5B00EC0EF00001C151EAEC32F0DEEF14F0FF91
:103F6B00FFF1EC04F09DEF14F0FFFFBD51000AD8F8
:103F7B00B4ACEF14F0010AD8B4EBEF14F0030AD889
:103F8B00B496EF15F0010AD8B4DDEF15F0070AD897
:103F9B00B44FEF16F0010AD8B431EF17F0030AD87B
:103FAB00B413EF18F0010AD8B4F5EF18F00F0AD8D4
:103FBB00B4E1EF19F0010AD8B4CBEF1AF0030AD829
:103FCB00B4B7EF1BF0010AD8B472EF1CF0070AD894
:103FDB00B42DEF1DF0010AD8B4ABEF1DF0030AD8D6
:103FEB00B42BEF1EF0010AD8B4B5EF1FF09DEF1400
:053FFB00F001EF00F0F1
:10651400FFFF8484C80EFFFF00F0E82EFCD78494AC
:106524001200FFFFFFFF026E849002C083FF8AEC1B
:1065340032F0020E016EF20EFFFFE82EFDD7012E9F
:10654400FBD700D01200FFFFFFFF026E848002C061
:1065540083FF8AEC32F0020E016EF20EFFFFE82E8A
:10656400FDD7012EFBD700D01200FFFFFFFF015023
:106574000302F3CF05F0F4CF06F001500402F35008
:10658400062602500302F350062605C001F006C099
:1065940002F01200FFFFFFFF9368000E8A6E000EE8
:1065A400816E9268000E896E000E806E060EC16EBA
:1065B400000E956E000E8C6E000E836E000E966EAD
:1065C400000E8D6E000E846E060EC16E1200FFFF6B
:1065D400FFFF036E000E046EFBEF32F0FFFF040EAC
:1065E4000424D96EDA6A010EDA22DF50A6EC32F006
:1065F400042AFFFF0350045CD8A003EF33F006EF36
:1066040033F0FFFFF0EF32F0FFFF1200FFFFFFFF58
:10661400036E000E026E3A0E036013EF33F016EFB2
:1066240033F0FFFF23EF33F0FFFF2F0E03641DEF62
:1066340033F020EF33F0FFFF23EF33F0FFFF010EC1
:10664400026EFFFF02C001F001301200FFFFFFFFE6
:106654000150021003100410D8B433EF33F036EFB6
:1066640033F0FFFF3FEF33F0FFFF000E011A000E7F
:10667400021A000E031A800E041AFFFF01C001F073
:1066840002C002F003C003F004C004F01200FFFFD4
:106694000B0EF66E000EF76E000EF86E01EE2CF087
:1066A40010EE05F00900F5CFEEFFE550E150FAE1F8
:1066B40001EE00F02C0EEE6AE806FDE100EE80F03B
:1066C400410EEE6AE806FDE1000EF86E000162EF8D
:1066D40014F0FFFF000E6B1A000E6C1A000E6D1AF8
:1066E400800E6E1A67C057F068C058F069C059F040
:1066F4006AC05AF06BC05BF06CC05CF06DC05DF0BA
:106704006EC05EF0B8EC0BF057C067F058C068F08C
:1067140059C069F05AC06AF01200FFFFFFFF140E5F
:10672400016E7D0EFFFFE82EFDD7012EFBD700D0B2
:10673400300E836E8AEC32F0050E016EDF0EFFFF21
:10674400E82EFDD7012EFBD7300E836E8AEC32F093
:10675400C80EFFFF00F0E82EFCD7300E836E8AECE3
:1067640032F0380E836E8AEC32F0080E836E8AECB7
:1067740032F0010E836E8AEC32F0060E836E8AECE0
:1067840032F00E0E836E8AEC32F01200FFFFFFFF30
:10679400026E000E046E0150D8B4D3EF33F0D6EF7E
:1067A40033F0FFFF00EF34F0FFFF010E036EDFEF65
:1067B40033F0FFFFD8900136032AFFFF01AEE5EF67
:1067C40033F0E8EF33F0FFFFDBEF33F0FFFFFFFFC1
:1067D400D89004360150025CD8A0F3EF33F0F6EF02
:1067E40033F0FFFFFAEF33F0FFFF0150025E048045
:1067F400FFFFD8900132032EE9EF33F0FFFF04507E
:106804001200FFFFFFFF03500410D8B40CEF34F064
:106814000FEF34F0FFFF3CEF34F0FFFF010E056E85
:1068240019EF34F0FFFFD89003360436052AFFFF32
:1068340004AE1FEF34F022EF34F0FFFF14EF34F016
:10684400FFFFFFFF0350015C04500258D8A02DEF56
:1068540034F030EF34F0FFFF35EF34F0FFFF035036
:10686400015E0450025AFFFFD89004320332052E11
:1068740023EF34F0FFFF01C001F002C002F0120068
:10688400FFFFFFFF000E0B6E000E0A6E085009108A
:10689400D8B44FEF34F052EF34F0FFFF83EF34F00D
:1068A400FFFF010E0C6E5CEF34F0FFFFD89008364A
:1068B40009360C2AFFFF09AE62EF34F065EF34F0BD
:1068C400FFFF57EF34F0FFFFFFFFD8900A360B3677
:1068D4000850065C09500758D8A073EF34F076EFDF
:1068E40034F0FFFF7CEF34F0FFFF0850065E0950E0
:1068F400075A0A80FFFFD890093208320C2E66EF3F
:1069040034F0FFFF0AC006F00BC007F01200FFFFCF
:10691400FFFF1250131014101510D8B494EF34F074
:1069240097EF34F0FFFFD0EF34F0FFFF010E166E47
:10693400A3EF34F0FFFFD890123613361436153611
:10694400162AFFFF15AEA9EF34F0ACEF34F0FFFFC9
:106954009CEF34F0FFFFFFFF12500E5C13500F58F2
:106964001450105815501158D8A0BBEF34F0BEEF96
:1069740034F0FFFFC7EF34F0FFFF12500E5E1350E8
:106984000F5A1450105A1550115AFFFFD89015324F
:10699400143213321232162EADEF34F0FFFF0EC054
:1069A4000EF00FC00FF010C010F011C011F0120063
:1069B400FFFFFFFF000E096E000E0A6E000E0B6E45
:1069C400000E0C6E0550061007100810D8B4EDEF39
:1069D40034F0F0EF34F0FFFF2FEF35F0FFFF010E3E
:1069E4000D6EFCEF34F0FFFFD890053606360736FF
:1069F40008360D2AFFFF08AE02EF35F005EF35F03B
:106A0400FFFFF5EF34F0FFFFFFFFD89009360A3699
:106A14000B360C360550015C0650025807500358DB
:106A240008500458D8A019EF35F01CEF35F0FFFFDB
:106A340026EF35F0FFFF0550015E0650025A07505D
:106A4400035A0850045A0980FFFFD89008320732CD
:106A5400063205320D2E06EF35F0FFFF09C001F0B6
:106A64000AC002F00BC003F00CC004F01200FFFFD8
:106A7400FFFF000E1D14256E000E1E14266E800EE0
:106A84001F14276E7F0E2014286E25502610271001
:106A94002810D8A450EF35F053EF35F0FFFF5CEF2A
:106AA40035F0FFFF000E1D6E000E1E6E000E1F6EF1
:106AB400000E206EFFFF000E2114256E000E22141E
:106AC400266E800E2314276E7F0E2414286E255004
:106AD400261027102810D8A472EF35F075EF35F082
:106AE400FFFF7EEF35F0FFFF000E216E000E226ED9
:106AF400000E236E000E246EFFFF21501D1810E1BE
:106B040022501E180DE123501F180AE124502018AA
:106B1400D8B48FEF35F092EF35F0FFFF96EF35F0F4
:106B2400FFFFD89098EF35F0FFFFD880FFFF1200E9
:106B3400FFFFFFFF29C01DF02AC01EF02BC01FF06D
:106B44002CC020F0000E216E000E226E000E236E6B
:106B5400000E246E3AEC35F0D8A0B3EF35F0B6EF62
:106B640035F0FFFFC9EF35F0FFFF2DC0D9FF2EC070
:106B7400DAFF000EDE6E000EDD6E000E296E000ED2
:106B84002A6E000E2B6E000E2C6E03EF36F0FFFF04
:106B94002C507F0B2F6E306AD8902F3630362DC094
:106BA400D9FF2EC0DAFF2FC0DEFF30C0DDFF2BBEC1
:106BB400DEEF35F0E3EF35F0FFFF2F6A2F2AE5EF24
:106BC40035F0FFFF2F6AFFFF2F502DC0D9FF2EC0D5
:106BD400DAFFDE12000EDD122DC0D9FF2EC0DAFF5F
:106BE400820EDE26FF0EDD222C50800B3F092C6E18
:106BF4002B9E29C029F02AC02AF02BC02BF02CC0D0
:106C04002CF0FFFF1200FFFFFFFF000E066E02BE16
:106C140011EF36F00EEF36F0FFFF18EF36F0FFFFFE
:106C2400016C021ED8B0022A010E066EFFFF04BEDC
:106C340021EF36F01EEF36F0FFFF26EF36F0FFFFB0
:106C4400036C041ED8B0042AFFFF03500410D8B408
:106C54002EEF36F031EF36F0FFFF5EEF36F0FFFF38
:106C6400010E056E3BEF36F0FFFFD8900336043675
:106C7400052AFFFF04AE41EF36F044EF36F0FFFF84
:106C840036EF36F0FFFFFFFF0350015C045002585B
:106C9400D8A04FEF36F052EF36F0FFFF57EF36F043
:106CA400FFFF0350015E0450025AFFFFD8900432E4
:106CB4000332052E45EF36F0FFFF0650D8B465EFDA
:106CC40036F068EF36F0FFFF6DEF36F0FFFF016C32
:106CD400021ED8B0022AFFFF01C001F002C002F078
:106CE4001200FFFFFFFF000E0C6E0ABE7FEF36F0AE
:106CF4007CEF36F0FFFF86EF36F0FFFF096C0A1ECB
:106D0400D8B00A2A010E0C6EFFFF08BE8FEF36F0D2
:106D14008CEF36F0FFFF96EF36F0FFFF076C081E8E
:106D2400D8B0082A010E0C1AFFFF000E0E6E000EDA
:106D34000D6E09500A10D8B4A2EF36F0A5EF36F064
:106D4400FFFFD6EF36F0FFFF010E0B6EAFEF36F00C
:106D5400FFFFD89009360A360B2AFFFF0AAEB5EFBB
:106D640036F0B8EF36F0FFFFAAEF36F0FFFFFFFF73
:106D7400D8900D360E360950075C0A500858D8A032
:106D8400C6EF36F0C9EF36F0FFFFCFEF36F0FFFF66
:106D94000950075E0A50085A0D80FFFFD8900A3246
:106DA40009320B2EB9EF36F0FFFF0C50D8B4DDEFEB
:106DB40036F0E0EF36F0FFFFE5EF36F0FFFF0D6C45
:106DC4000E1ED8B00E2AFFFF0DC007F00EC008F04B
:106DD4001200FFFFFFFF6DC06FF06EC070F0D8901F
:106DE4006F367036D8906F3670366BC071F06CC0E9
:106DF40072F06F5071267050722271C0F6FF72C02B
:106E0400F7FF0900FFFFF5CF73F00900FFFFF5CF8F
:106E140074F00900FFFFF5CF75F00A00FFFFF5CF0E
:106E240076F063EF37F0FFFF73C035F074C036F0CF
:106E340075C037F076C038F067C031F068C032F002
:106E440069C033F06AC034F066EC09F031C057F021
:106E540032C058F033C059F034C05AF06D06D8A08F
:106E64006E066DC06FF06EC070F0D8906F367036DD
:106E7400D8906F3670366BC071F06CC072F06F5082
:106E840071267050722271C0F6FF72C0F7FF0900BC
:106E9400FFFFF5CF5BF00900FFFFF5CF5CF00900C1
:106EA400FFFFF5CF5DF00A00FFFFF5CF5EF0B8EC11
:106EB4000BF057C073F058C074F059C075F05AC045
:106EC40076F0FFFF6D506E10D8A46BEF37F06EEFC5
:106ED40037F0FFFF15EF37F0FFFF73C067F074C0A2
:106EE40068F075C069F076C06AF01200FFFFFFFF1A
:106EF400000E0114096E000E02140A6E800E0314B3
:106F04000B6E7F0E04140C6E09500A100B100C103B
:106F1400D8A48FEF37F092EF37F0FFFF9BEF37F0F5
:106F2400FFFF000E016E000E026E000E036E000ED7
:106F3400046EFFFF000E0514096E000E06140A6E9F
:106F4400800E07140B6E7F0E08140C6E09500A1085
:106F54000B100C10D8A4B1EF37F0B4EF37F0FFFFEB
:106F6400BDEF37F0FFFF000E056E000E066E000E3B
:106F7400076E000E086EFFFF04AEC3EF37F0C6EFD6
:106F840037F0FFFFD0EF37F0FFFF016C021ED8B0DF
:106F9400022A031ED8B0032A800E0456FFFF08AE4F
:106FA400D6EF37F0D9EF37F0FFFFE3EF37F0FFFF0D
:106FB400056C061ED8B0062A071ED8B0072A800E14
:106FC4000856FFFF000E011A000E021A000E031AE3
:106FD400800E041A000E051A000E061A000E071A77
:106FE400800E081A0550015C0650025807500358D9
:106FF40008500458D8B001EF38F004EF38F0FFFF20
:1070040008EF38F0FFFFD8900AEF38F0FFFFD88080
:10701400FFFF1200FFFFFFFF553456345C6E5C50D7
:10702400D8A417EF38F01AEF38F0FFFF26EF38F046
:10703400FFFFFFFF000E536E000E546E000E556EE0
:10704400000E566EA5EF38F0FFFF53C057F054C042
:1070540058F055C059F056C05AF0200E38EF38F0A9
:10706400FFFFD8905A32593258325732FFFFE82E78
:1070740032EF38F057505B6E558EFF0E5316FF0EED
:107084005416FF0E5516000E5616960E5C5E5CBE28
:1070940051EF38F04EEF38F0FFFF6BEF38F0FFFFA1
:1070A4005C50800A970FD8B05AEF38F05DEF38F093
:1070B400FFFF60EF38F0FFFF1BEF38F0FFFFD890C1
:1070C40056325532543253325C3E60EF38F089EF19
:1070D40038F0FFFF1F0E5C6472EF38F075EF38F084
:1070E400FFFF7FEF38F0FFFF1BEF38F0FFFFD89072
:1070F40053365436553656365C06FFFF5C50D8A4DA
:1071040086EF38F089EF38F0FFFF78EF38F0FFFFB3
:107114005B50D8B490EF38F093EF38F0FFFF9CEF5A
:1071240038F0FFFF561E551E541E536C000E542299
:1071340055225622FFFF53C053F054C054F055C09B
:1071440055F056C056F0FFFF1200FFFFFFFF77C057
:107154001DF078C01EF079C01FF07AC020F0000E38
:10716400216E000E226E000E236E000E246E3AEC89
:1071740035F0D8A0C0EF38F0C3EF38F0FFFFCEEF02
:1071840038F0FFFF000E776E000E786E000E796EF9
:10719400000E7A6E52EF39F0FFFF7A507F0B7D6E4E
:1071A4007E6AD8907D367E367D507B267E507C224A
:1071B40079BEDFEF38F0E4EF38F0FFFF7D6A7D2A17
:1071C400E6EF38F0FFFF7D6AFFFF7D507B26000E5F
:1071D4007C227CBEF3EF38F0F0EF38F0FFFF03EFD2
:1071E40039F0FFFF000E0001B16F220EB06F000EE8
:1071F400776E000E786E000E796E000E7A6E52EF86
:1072040039F0FFFF7CBE0DEF39F07C04D8A00DEF00
:1072140039F010EF39F0FFFF34EF39F0FFFF000EC3
:107224000001B16F220EB06F7ABE1EEF39F01BEF72
:1072340039F0FFFF29EF39F0FFFFFF0E776EFF0EE5
:10724400786E7F0E796EFF0E7A6E52EF39F0FFFF83
:10725400FF0E776EFF0E786E7F0E796E7F0E7A6E5C
:1072640052EF39F0FFFF7C347C307E6E7B307D6ED4
:107274007A507D18800B7D187A6E7BC07DF0010EEC
:107284007D167D327D3279507D187F0B7D18796EA5
:1072940077C077F078C078F079C079F07AC07AF066
:1072A400FFFF1200FFFFFFFF67C029F068C02AF04C
:1072B40069C02BF06AC02CF06F0E2D6E000E2E6E7E
:1072C4009BEC35F070BE6CEF39F069EF39F0FFFFDD
:1072D4008BEF39F0FFFF6ABE75EF39F072EF39F0CA
:1072E400FFFF80EF39F0FFFF000E676E000E686E3F
:1072F400800E696EBF0E6A6E01EF3AF0FFFF000E5A
:10730400676E000E686E000E696E000E6A6E01EF05
:107314003AF0FFFF70500AE11D0E6F5CD8A095EFA4
:1073240039F098EF39F0FFFFA3EF39F0FFFF67C0A2
:1073340067F068C068F069C069F06AC06AF001EF7C
:107344003AF0FFFF67C053F068C054F069C055F0CD
:107354006AC056F00DEC38F053C00FF054C010F072
:1073640055C011F056C012F0010E60EC3CF00FC095
:107374006BF010C06CF011C06DF012C06EF067C0FD
:1073840001F068C002F069C003F06AC004F06BC089
:1073940005F06CC006F06DC007F06EC008F079EC23
:1073A40037F0D8B0D8EF39F0DBEF39F0FFFFF8EF62
:1073B40039F0FFFF6BC057F06CC058F06DC059F046
:1073C4006EC05AF0000E5B6E000E5C6E800E5D6E39
:1073D400BF0E5E6EB8EC0BF057C067F058C068F093
:1073E40059C069F05AC06AF001EF3AF0FFFF6BC070
:1073F40067F06CC068F06DC069F06EC06AF0FFFFA2
:107404001200FFFFFFFF033404340E6E0E50D8A4A5
:107414000EEF3AF011EF3AF0FFFF1DEF3AF0FFFFE5
:10742400FFFF000E016E000E026E000E036E000ED2
:10743400046EC1EF3AF0FFFF073408340D6E0D50AF
:10744400D8A427EF3AF02AEF3AF0FFFF2DEF3AF0F5
:10745400FFFF12EF3AF0FFFF038EFF0E0116FF0E3F
:107464000216FF0E0316000E0416078EFF0E0516F5
:10747400FF0E0616FF0E0716000E0816000E096E04
:10748400000E0A6E000E0B6E000E0C6E7F0E0E5E6A
:107494000D50A00F0E5E200E0D6EFFFFD890093622
:1074A4000A360B360C360550015C0650025807505C
:1074B400035808500458D8A062EF3AF065EF3AF048
:1074C400FFFF6FEF3AF0FFFF0550015E0650025ACE
:1074D4000750035A0850045A0980FFFFD890013618
:1074E4000236033604360D2E4FEF3AF00EBE80EF0F
:1074F4003AF07DEF3AF0FFFF9AEF3AF0FFFF0E50BB
:10750400800A9F0FD8B089EF3AF08CEF3AF0FFFF72
:107514008FEF3AF0FFFF12EF3AF0FFFFD8900C32F2
:107524000B320A3209320E3E8FEF3AF0B8EF3AF0DE
:10753400FFFF1F0E0E64A1EF3AF0A4EF3AF0FFFF35
:10754400AEEF3AF0FFFF12EF3AF0FFFFD8900936A2
:107554000A360B360C360E06FFFF0E50D8A4B5EFD4
:107564003AF0B8EF3AF0FFFFA7EF3AF0FFFF09C097
:1075740001F00AC002F00BC003F00CC004F0FFFFDE
:107584001200FFFFFFFF03C009F00A6A0B6A02340E
:10759400093601E30A800950116E1150D8A4D5EFC1
:1075A4003AF0D8EF3AF0FFFFE4EF3AF0FFFFFFFFC5
:1075B400000E016E000E026E000E036E000E046ECD
:1075C40086EF3BF0FFFF07C009F00A6A0B6A063436
:1075D400093601E30A800950106E1050D8A4F5EF63
:1075E4003AF0F8EF3AF0FFFFFBEF3AF0FFFFD9EF84
:1075F4003AF0FFFF028EFF0E0116FF0E0216000E78
:107604000316068EFF0E0516FF0E0616000E07164D
:10761400000E0C6E000E0D6E000E0E6E000E0F6E40
:107624007F0E115E1050980F115E180E106EFFFF42
:10763400D8900C360D360E360F360550015C0650C8
:10764400025807500358D8A02AEF3BF02DEF3BF027
:10765400FFFF35EF3BF0FFFF0550015E0650025A75
:107664000750035A0C80FFFFD890013602360336C8
:10767400102E19EF3BF011BE45EF3BF042EF3BF00B
:10768400FFFF5FEF3BF0FFFF1150800A970FD8B068
:107694004EEF3BF051EF3BF0FFFF54EF3BF0FFFFA9
:1076A400D9EF3AF0FFFFD8900F320E320D320C3280
:1076B400113E54EF3BF07DEF3BF0FFFF170E1164DA
:1076C40066EF3BF069EF3BF0FFFF73EF3BF0FFFF2A
:1076D400D9EF3AF0FFFFD8900C360D360E360F3640
:1076E4001106FFFF1150D8A47AEF3BF07DEF3BF079
:1076F400FFFF6CEF3BF0FFFF0CC001F00DC002F088
:107704000EC003F00FC004F0FFFF1200FFFFFFFFE5
:107714007ABE92EF3BF08FEF3BF0FFFFA2EF3BF01E
:10772400FFFF000E0001B16F210EB06F000E776EE7
:10773400000E786E000E796E000E7A6E5DEF3CF0EE
:10774400FFFF77C01DF078C01EF079C01FF07AC02B
:1077540020F0000E216E000E226E000E236E000E2D
:10776400246E3AEC35F0D8A0BAEF3BF0BDEF3BF015
:10777400FFFFCDEF3BF0FFFF000E0001B16F220EC3
:10778400B06F000E776E000E786E000E796E000EEC
:107794007A6E5DEF3CF0FFFF000E356E000E366E24
:1077A400000E376E400E386E7B0E2D6E000E2E6E60
:1077B40077C029F078C02AF079C02BF07AC02CF079
:1077C4009BEC35F029C031F02AC032F02BC033F0E5
:1077D4002CC034F066EC09F031C057F032C058F0D8
:1077E40033C059F034C05AF0000E5B6E000E5C6E6C
:1077F400800E5D6EBF0E5E6EB8EC0BF057C077F076
:1078040058C078F059C079F05AC07AF07B06D8A0F5
:107814007C0677C067F078C068F079C069F07AC0F8
:107824006AF0550E6B6E7E0E6C6E000E6E6E080E58
:107834006D6EECEC36F067C077F068C078F069C024
:1078440079F06AC07AF0180E356E720E366E310E0B
:10785400376E3F0E386E7BC00FF07CC010F0000E08
:1078640010BEFF0E116E126E010E60EC3CF00FC0E4
:1078740031F010C032F011C033F012C034F066ECB5
:1078840009F031C057F032C058F033C059F034C059
:107894005AF077C05BF078C05CF079C05DF07AC0D4
:1078A4005EF0B8EC0BF057C077F058C078F059C0D0
:1078B40079F05AC07AF0FFFF1200FFFFFFFF176E46
:1078C4001750D8B468EF3CF06BEF3CF0FFFF90EF3B
:1078D4003CF0FFFF12BE74EF3CF071EF3CF0FFFF91
:1078E40090EF3CF0FFFF0FC013F010C014F011C074
:1078F40015F012C016F0131E141E151E161E132AA0
:10790400000E14221522162213C019F014C01AF006
:1079140015C01BF016C01CF099EF3CF0FFFF0FC020
:1079240019F010C01AF011C01BF012C01CF0FFFFB8
:107934000F50101011101210D8A4A3EF3CF0A6EFB2
:107944003CF0FFFFB1EF3CF0FFFF000E0F6E000EA6
:10795400106E000E116E000E126E59EF3DF0FFFF17
:10796400960E186EBDEF3CF0FFFF182AD8901C321B
:107974001B321A321932FFFF000E1914136E000E57
:107984001A14146E000E1B14156EFE0E1C14166EC3
:107994001350141015101610D8A4D3EF3CF0D6EFE2
:1079A4003CF0FFFFB6EF3CF0FFFFE6EF3CF0FFFFDB
:1079B400182A010E1926000E1A221B221C22D89006
:1079C4001C321B321A321932FFFF000E1914136EC7
:1079D400000E1A14146E000E1B14156EFF0E1C14E8
:1079E400166E1350141015101610D8A4FCEF3CF0AA
:1079F400FFEF3CF0FFFFD9EF3CF0FFFF09EF3DF054
:107A0400FFFF1806D89019361A361B361C36FFFFAE
:107A14001BBE0FEF3DF012EF3DF0FFFF1CEF3DF0FA
:107A2400FFFF020E186019EF3DF01CEF3DF0FFFF61
:107A340002EF3DF0FFFF18B022EF3DF025EF3DF0DF
:107A4400FFFF27EF3DF0FFFF1B9EFFFFD89018328A
:107A540018C013F0146A156A166A13C016F0156A72
:107A6400146A136A1350191214501A1215501B1267
:107A740016501C121750D8B442EF3DF045EF3DF0BC
:107A8400FFFF50EF3DF0FFFF12BE4EEF3DF04BEF16
:107A94003DF0FFFF50EF3DF0FFFF1C8EFFFF19C0CC
:107AA4000FF01AC010F01BC011F01CC012F0FFFF41
:107AB4001200FFFFFFFF566E6D0E566464EF3DF03B
:107AC40067EF3DF0FFFF21EF3EF0FFFF000E356E44
:107AD400000E366E000E376E3F0E386E000E096EC5
:107AE400640E086E56C006F0076A43EC34F0D89072
:107AF40006360736D89006360736480E0626000E98
:107B04000722D10E0624F66E7D0E0720F76E0900BB
:107B1400FFFFF5CF31F00900FFFFF5CF32F0090088
:107B2400FFFFF5CF33F00A00FFFFF5CF34F066EC2A
:107B340009F031C052F032C053F033C054F034C0B5
:107B440055F0000E096E0A0E086E000E046E640EE7
:107B5400036E56C001F0026A04EC34F001C006F072
:107B640002C007F043EC34F0D89006360736D890BC
:107B740006360736240E0626000E0722D10E0624EA
:107B8400F66E7D0E0720F76E0900FFFFF5CF35F086
:107B94000900FFFFF5CF36F00900FFFFF5CF37F0FE
:107BA4000A00FFFFF5CF38F052C031F053C032F075
:107BB40054C033F055C034F066EC09F031C04EF0D7
:107BC40032C04FF033C050F034C051F04EC031F0E9
:107BD4004FC032F050C033F051C034F0000E046E88
:107BE4000A0E036E56C001F0026A04EC34F0D89019
:107BF40001360236D89001360236D10E0124F66ED3
:107C04007D0E0220F76E0900FFFFF5CF35F0090065
:107C1400FFFFF5CF36F00900FFFFF5CF37F00A007C
:107C2400FFFFF5CF38F066EC09F031C04AF032C0FE
:107C34004BF033C04CF034C04DF0CBEF3EF0FFFFBF
:107C44000A0E566428EF3EF02BEF3EF0FFFFA0EF44
:107C54003EF0FFFF000E356E000E366E000E376EDE
:107C64003F0E386E000E096E0A0E086E56C006F0FE
:107C7400076A43EC34F0D89006360736D8900636B7
:107C84000736240E0626000E0722D10E0624F66EB1
:107C94007D0E0720F76E0900FFFFF5CF31F00900D4
:107CA400FFFFF5CF32F00900FFFFF5CF33F00A00F4
:107CB400FFFFF5CF34F066EC09F031C052F032C06A
:107CC40053F033C054F034C055F052C031F053C0B7
:107CD40032F054C033F055C034F0000E046E0A0E76
:107CE400036E56C001F0026A04EC34F0D8900136F9
:107CF4000236D89001360236D10E0124F66E7D0E7E
:107D04000220F76E0900FFFFF5CF35F00900FFFFF1
:107D1400F5CF36F00900FFFFF5CF37F00A00FFFF7B
:107D2400F5CF38F066EC09F031C04AF032C04BF0C0
:107D340033C04CF034C04DF0CBEF3EF0FFFF565053
:107D4400040DD10EF324F66E7D0EF420F76E0900B7
:107D5400FFFFF5CF31F00900FFFFF5CF32F0090046
:107D6400FFFFF5CF33F00A00FFFFF5CF34F0000E2C
:107D7400356E000E366E000E376E3F0E386E66ECB2
:107D840009F031C04AF032C04BF033C04CF034C07B
:107D94004DF0FFFF1200FFFF000000803F000020B5
:107DA400410000C84200007A4400401C460050C311
:107DB40047002474498096184B20BCBE4C286B6E37
:107DC4004EF9021550EC78AD60CAF249710000809A
:107DD4003FCDCCCC3D0AD7233C6F12833A17B7D1A1
:107DE40038ACC52737BD37863595BFD63377CC2B0E
:107DF400325F708930FFE6DB2E08E53C1E6042A24C
:107E04000D0000803F1872313FF0FD753E47586306
:107E14003D58951D3C82C4AE3AA8782139EF938031
:107E240037A092A73546561534010000000A000019
:107E34000064000000E803000010270000A0860191
:107E44000040420F008096980000E1F50500CA9AB0
:107E54003B00000000C4FF7F3F80EFFFBE90E1A91C
:107E64003EEC8276BE82AD2B3E0E3CC3BD87D11361
:107E74003D4178D3BB5265733A202564256425645B
:107E840025642564256425642564004E756D3A20B7
:107E9400256925692569256925692569256925696E
:107EA400005265733A202569256925692569256984
:107EB4002569256925690052204F5220203A202542
:107EC40064256425642564005220414E44203A20F0
:107ED40025642564256425640052204E4F52203ABF
:107EE400202564256425642564005220584F5220BF
:107EF4003A2025642564256425640052204E414EB1
:107F0400443A202564256425642564005220584E93
:107F14004F523A2025642564256425640052657314
:107F2400756C7461646F3A203C2F3300526573752D
:107F34006C7461646F3A2020256900256920506FB4
:107F440074656E63696120256900526573756C748C
:107F540061646F3A202D256900526573756C7461F4
:107F6400646F3A202569002569205261697A20648A
:107F740065202569004E756D3A25692569256925B1
:107F84006900446A2046756D61726174746F0041C2
:107F94003D256925692569256900423D25692569CD
:107FA40025692569005274613A20252E3266002520
:107FB4006920202B2025690050726573656E7473E7
:107FC400005274613A202569002A202569002D2079
:107FD4002569002F20256900423D256900444F0092
